:200000009FCA11CCB8CAB7CAB6CAB5CAB4CAB3CAB2CAB1CAB0CAAFCAAECAADCAACCAABCAD9
:20002000AACAA9CAA8CA000000000000000000000000000000000000000000000000000067
:200040002A034200690072006B006C00650072002000430075007200720020004D006F0010
:200060006E00690074006F0072001201100100000008424251E40005010200010902220039
:2000800001010080FA090400000103000000092101010001224D0007058103080032060067
:2000A000FF0901A10109016721D1F000150026FF0F350046FF0F850195017510B102090112
:2000C0008502810266011027FFFF000015008503751095010901B102850409019102850555
:2000E0000901B10285060901B102C00011241FBECFE5D2E0DEBFCDBF10E0A0E6B0E0EEE0C6
:20010000FBE002C005900D92A236B107D9F710E0A2E6B0E001C01D92AD3AB107E1F7EED100
:20012000F4C46ECF85B7826085BF8BB780648BBF8BE4809383008AE58093820008951F93A0
:20014000DC01162F809182008E31E1F08091820084FF07C08091830098E889278093830023
:2001600003C08AE580938200912FE4E8F0E08D9181939150E1F784E890E0612F36D31C5F81
:20018000109382001F9108951F93CF93DF9360919300635067FDE9C080919000CCE0D0E026
:2001A000C81BD109C956DF4FDA9880918F008D3209F0C9C0683009F0D6C083EC80937700C2
:2001C0008AE580936000109263009881892F807639F0CE0143D1282F8F3F09F4A3C0A9C077
:2001E0002A813C81109280008981882381F49F71923049F4313839F4809182008E3119F447
:2002000081E0809380001092810022E084C0813011F0833089F4222309F07CC0313809F0C3
:2002200079C0813011F08EE101C08AE5809382008BE4809383006EC0853019F42093940063
:2002400069C0863009F04FC08B81813041F48AE690E0909392008093910022E140C08230D7
:2002600041F48CE790E0909392008093910022E236C08330F9F48A81882341F486E290E0B0
:20028000909392008093910024E029C0813041F48AE290E0909392008093910026E11FC017
:2002A0008230E1F480E490E090939200809391002AE215C0813241F48EE890E09093920026
:2002C0008093910029E00BC0823241F48EE990E090939200809391002DE401C020E080E447
:2002E0008093630026C0883021F421E086E990E014C0893019F42093960009C08A3011F48A
:2003000021E009C08B3031F48BE4809383008AE58093820020E080E890E09093920080938A
:20032000910007C0888187FD2E8180E88093630006C08F81882319F48E81821708F0822F6C
:200340008093610010C08091630087FF0CC0CE01B3D08F3F21F48EE18093600004C088230D
:2003600011F010926100109293008091600084FF49C0809161008F3F09F444C0182F893006
:2003800008F018E0811B809361008091770098E8892780937700112341F1209191003091B2
:2003A00092008091630086FF0DC0A8E7B0E080E090E0F901E80FF91FE491ED930196181732
:2003C000C1F708C0912FD901E8E7F0E08D9181939150E1F71150812F90E01F5F0196820F52
:2003E000931F909392008093910088E790E0612FFCD1612F6C5F6C3019F08FEF80936100C4
:200400006093600094E186B3807649F49150D9F71092940010928E008AE58093820010E09D
:20042000992309F411E080916200811739F0112319F4F89404D1789410936200DF91CF915B
:200440001F9108951F920F920FB60F9211240F900FBE0F901F90189508950895FC0185E659
:2004600090E0909392008093910080818076803209F58181813031F4109265001092660025
:2004800082E00895893029F48281809364008FEF0895823041F487E690E090939200809366
:2004A000910081E008958A3029F483818093670080E0089580E00895FC01918180E020814E
:2004C000622F70E0682B792B80916400843061F0853018F4833071F405C0853039F0863058
:2004E00049F406C082E005C083E003C080E001C081E04DD11092640081E008950F931F93B4
:20050000CF93DF93D79ADF98DE98D69ADE98DE98D29ADA98DA9815BA84E083BFD198D998AE
:200520002FE088E190E00FB6F894A89581BD0FBE21BDF8DD7894D19AD99ADA9A84E060ED78
:2005400077E025D186E06CE271E021D180E00BD181E009D182E007D183E005D100E0A89550
:2005600008B601FE06C088B7826088BF88EF93E0B4D00ADE85E0E2D0892B71F0809182007B
:2005800084FF0AC085E0EFD0109265001092660085E690E062E0D3DD84E0D0D0892B41F025
:2005A00084E064EF71E0F3D08BB394E089278BBB86E0C4D0892BF9F086E06CE271E0E7D075
:2005C000102F1F5F023071F0033028F4002391F0013071F405C0033039F0043049F406C0EA
:2005E000DF9A08C0DF9806C0DE9A04C0DE9802C086E0B9D0012FC0E0D0E08C2F9FD0892BBC
:20060000C9F08C2FB0D0C130D10579F0C230D1051CF4209741F00EC0C230D10541F0C3303C
:20062000D10541F406C0DF9A05C0DF9803C0DE9A01C0DE982196C430D105F9F690CFEF9272
:20064000FF920F931F93CF93DF9380E8F82E00E0C0E0D0E0102F1F0D11BFCBD09C0189E047
:20066000243338070CF0102FF6942196C830D10511F0012FEFCF115011BF1F5F7901C12F92
:20068000D0E0219610C0B5D08453994097FF03C0909581959F4F8E159F0514F411B77C01D8
:2006A00081B78F5F81BF81B790E0C817D9075CF711BFCDB7DEB7E6E019C280E090E02FEFA2
:2006C0003FEFFC01EE0FFF1FE759FF4F31832083019687309105A9F7089520916800820F24
:2006E000911D80936800892F99276FEF7FEF40E050E0FA01EE0FFF1FE759FF4F2081318146
:20070000AFEF2F3F3A0799F08217930770F4281B390B2617370708F4B901FA01EE0FFF1F9E
:20072000E759FF4F3183208302C0118210824F5F5F4F47305105E9F6CB010895E82FF0E095
:20074000EE0FFF1FE759FF4F80819181892B19F020E030E006C08FEF9FEF9183808321E026
:2007600030E0C9010895E82FF0E0EE0FFF1FE759FF4F8FEF9FEF918380830895E82FF0E0CB
:20078000EE0FFF1FE759FF4F118210820895E82FF0E0EE0FFF1FE759FF4F718360830895EA
:2007A000A82FB92F8FEF9FEF1BC02D918227282F22952827722F26952695272723952695F7
:2007C0002170782F892F82272195207C922F222776952795972782277695279597278227C8
:2007E000615018F7809590950895DADF8D939D930895A6E088279927AA9569F00197E1F3C3
:20080000B599FCCFB59BFECF81E09927A6B3019611F0A076D9F70895CF93CFB7CF93C3956B
:20082000B59BE9F7B59B0BC0B59B09C0B59B07C0B59B05C0B59B03C0B59B01C0D5C00F92CE
:20084000DF93C0919000DD27C956DF4F012EB59B03C0DF910F90E6CF2F930F931F934F93F6
:200860002FEF4F6F06B305FB20F95F933F9350E03BE065C016B30126502955FDC89556B375
:20088000012705FB25F92F7306B3B1F05027102715FB26F906B22230F0F000C016B301279E
:2008A00005FB27F90126502906B22430E8F54F77206816B30000F6CF50274F7D206206B236
:2008C000102F000000C006B300265029102715FB26F906B2E2CF4F7B06B3206400C0DACF82
:2008E00001265029107606B269F14E7F2160012F16B328C0002650294D7F06B22260102FAD
:2009000029C0012650294B7F06B22460012F2DC016B301265029477F2860000006B22EC0CE
:200920004F7E06B3206130C0422706B3499300265029102706B24FEF15FB20F9297F16B35C
:2009400079F2107659F10126502906B2012705FB21F9237F06B371F2002650293150D0F024
:2009600006B2102715FB22F9277E16B351F201265029012705FB06B223F92F7C49F200002A
:2009800006B3102715FB24F90026502906B22F7939F270CF10E41ABF002719C03B503195B3
:2009A000C31BD04010E41ABF0881033C09F10B34F9F020918E001981110F1213EDCF4A81ED
:2009C000441F093651F10D3211F0013E29F7009395003F915F914F911F910F912F91DF914C
:2009E0000F90CAB7C6FD1BCFCF91CFBFCF91189520919500222369F310919300112379F572
:200A000034307AF13093930020938F00109190003BE0311B3093900024C00091930001304B
:200A2000F4F40AE54F7049F43091600034FD1AC000936000C7E7D0E019C03091820034FD19
:200A400011C000938200C3E8D0E010C0052710E000C021C0052710E0C89508BB14C03AE599
:200A600001C032ED032EC0E0D0E032E017B31066C59A08B317BB50E620E84FEF20FF052710
:200A800008BB279517951C3F28F700004552B0F720FF0527279508BB17951C3FB8F629913A
:200AA0003A9561F70F7910919400110F08BBC250D04011F010938E0010E41ABF006217B322
:200AC0001F79402F4F7954E05A95F1F708BB17BB48BB7FCF2A88398848885F846E847D843D
:200AE0008C849B84AA84B984C884DF80EE80FD800C811B81AA81B981CE0FD11D0FB6F8941C
:200B0000DEBF0FBECDBFED010895F894FFCF5AFFFFFFFFFFFFFFFFFFFFFFFFFFFFFFFFFFB1
:200B2000FFFFFFFFFFFFFFFFFFFFFFFFFFFFFFFFFFFFFFFFFFFFFFFFFFFFFFFFFFFFFFFFD5
:200B4000000000000000000000000000000000000000000000000000000000000000000095
:200B6000000000000000000000000000000000000000000000000000000000000000000075
:200B8000000000000000000000000000000000000000000000000000000000000000000055
:201420000000000000000000000000000000000000000000000000000000000000000403A5
:2014400009041C037700770077002E00660069007300630068006C002E0064006500160344
:2014600041005600520055005300420042006F006F00740012011001FF000008C016DC0523
:201480000001010200010902120001010080FA0904000000000000000000000000000000A1
:2014A00000000000000000000000000000000000000000000000000000000000000000002C
:2014C00075C00AC48EC08DC08CC08BC01BC289C088C087C086C085C084C083C082C081C08D
:2014E00080C07FC07EC00403090416036200690072006B006C00650072002E007300650011
:201500000000000000000000000000000000000000000000000000000000000000000000CB
:201520000000000000000000000000000000000000000000000000000000000000000000AB
:2015400011241FBECFE5D2E0DEBFCDBF10E0A0E6B0E0E8E8FEE102C005900D92A436B107AD
:20156000D9F710E0A4E6B0E001C01D92AF39B107E1F7D9D387C444C585B7826085BF8BB705
:2015800080648BBF08951F93CF93DF9360917700635067FDA3C080917400CCE0D0E0C81B54
:2015A000D109C558DF4F809173008D3209F084C0683009F091C083EC809367008AE5809339
:2015C0006000109265008881807639F0CE01E7D2282F8F3F09F45FC065C09A811092700061
:2015E0008981882321F41092710022E04DC0853019F49093780047C08630B1F58B81813082
:2016000019F484E794E104C0823041F486E894E1909376008093750022E122C08330F9F4A9
:201620008A81882341F48EE394E1909376008093750024E015C0813041F482E494E19093FB
:201640007600809375002CE10BC0823041F48EE594E1909376008093750026E101C020E0FC
:2016600080E4809365001EC0883021F421E08AE790E00CC0893019F490937A0004C08A3054
:2016800011F421E001C020E080E790E0909376008093750007C0888187FD2E8180E880930D
:2016A000650006C08F81882319F48E81821708F0822F8093610010C08091650087FF0CC0DA
:2016C000CE01E9D28F3F21F48EE18093600004C0882311F0109261001092770080916000BE
:2016E00084FF58C0809161008F3F09F453C0182F893008F018E0811B809361008091670087
:2017000098E8892780936700112391F18091650087FF08C088E690E0612F98D2182F8930CD
:2017200098F526C0209175003091760086FF0DC0A8E6B0E080E090E0F901E80FF91FE4911B
:20174000ED9301961817C1F708C0912FD901E8E6F0E08D9181939150E1F71150812F90E01F
:201760001F5F0196820F931F909376008093750088E690E0612F40D0612F6C5F6C3041F04A
:201780008FEF8093610004C08FEF809361006EE16093600094E186B3807631F49150D9F785
:2017A000109278001092720010E0992309F411E080916400811739F0112319F4F89421D36A
:2017C000789410936400DF91CF911F910895A82FB92F80E090E041E050EA609530E009C021
:2017E0002D9182279795879510F084279527305EC8F36F5FA8F30895EADF8D939D930895CE
:20180000A6E088279927AA9569F00197E1F3B599FCCFB59BFECF81E09927A6B3019611F087
:20182000A076D9F70895CF93CFB7CF93C395B59BE9F7B59B0BC0B59B09C0B59B07C0B59BB8
:2018400005C0B59B03C0B59B01C0D3C00F92DF93C0917400DD27C558DF4F012EB59B03C0A3
:20186000DF910F90E6CF2F930F931F934F932FEF4F6F06B305FB20F95F933F9350E03BE0EF
:2018800065C016B30126502955FDC89556B3012705FB25F92F7306B3B1F05027102715FB02
:2018A00026F906B22230F0F000C016B3012705FB27F90126502906B22430E8F54F77206877
:2018C00016B30000F6CF50274F7D206206B2102F000000C006B300265029102715FB26F940
:2018E00006B2E2CF4F7B06B3206400C0DACF01265029107606B269F14E7F2160012F16B390
:2019000028C0002650294D7F06B22260102F29C0012650294B7F06B22460012F2DC016B386
:2019200001265029477F2860000006B22EC04F7E06B3206130C0422706B34993002650297F
:20194000102706B24FEF15FB20F9297F16B379F2107659F10126502906B2012705FB21F9EB
:20196000237F06B371F2002650293150D0F006B2102715FB22F9277E16B351F2012650295E
:20198000012705FB06B223F92F7C49F2000006B3102715FB24F90026502906B22F7939F21E
:2019A00070CF10E41ABF002717C03B503195C31BD04010E41ABF0881033CF9F00B34E9F048
:2019C000209172001981110F1213EDCF093651F10D3211F0013E39F7009379003F915F914D
:2019E0004F911F910F912F91DF910F90CAB7C6FD1DCFCF91CFBFCF9118952091790022234E
:201A000069F310917700112321F5343022F13093770020937300109174003BE0311B3093F2
:201A2000740019C00091770001309CF40AE53091600034FD11C000936000C7E6D0E010C05E
:201A4000052710E000C021C0052710E0C89508BB14C03AE501C032ED032EC0E0D0E032E027
:201A600017B31066C59A08B317BB50E620E84FEF20FF052708BB279517951C3F28F70000CE
:201A80004552B0F720FF0527279508BB17951C3FB8F629913A9561F70F7910917800110FE7
:201AA00008BBC250D04011F01093720010E41ABF006217B31F79402F4F7954E05A95F1F758
:201AC00008BB17BB48BB8ACFEF92FF920F931F93F82E092FF89460EC74E1660F771F40E0F9
:201AE00050E010E0EE24E394FA01A591B49180E04030580711F49D010DC0E0E042305E0791
:201B000021F48F2D902F9C0105C0FA01E60FF71F25913491FA010901E0925700E8951124D2
:201B20002A173B0709F011E04E5F5F4F40345105D9F61123A9F007B600FCFDCFE0E0F0E062
:201B400083E080935700E89507B600FCFDCFE0E0F0E085E080935700E89507B600FCFDCF55
:201B60001F910F91FF90EF900895CF93DF93E0ECF4E1C591D491E2ECF4E125913491CE014D
:201B80008070907F8050904C39F4DA9AC9019CDFDF702196FE010995DF91CF910895FC01A7
:201BA0008181813011F4E1DF3FC08230F1F42281338130939C0020939B0010929A00109235
:201BC000990080916600882311F021E03DC081E080936600C901805C9F4F805C944110F02C
:201BE00010926600232B49F512C08430D9F480916600882399F48281938190939C00809366
:201C00009B0010929A0010929900892BB1F480EC94E190939C0080939B000FC01092910009
:201C200021E00CC0833011F020E008C01092910080E48093920022E001C02FEF81E990E064
:201C40009093760080937500822F0895AC0120E01EC0E0919900F0919A0080919B00909198
:201C60009C00E80FF91F85919491FA01E20FF11D808391838091990090919A00029690934D
:201C80009A00809399002E5F8034910510F4261700F3822F0895FF920F931F93CF93DF93EC
:201CA0008C01809166008130B9F5C0919B00D0919C0070E0FF24F3942DC0F894209199001B
:201CC00030919A00A9014C0F5D1FF801E70FF11DB181A0E0808190E08A2B9B2BFA010C0185
:201CE000F0925700E895112478942E5F3F4F30939A00209399002034310558F082E0809342
:201D000066008AE090E090939E0080939D0081E004C07E5F761788F280E0DF91CF911F9129
:201D20000F91FF900895FF920F931F93CF93DF938FEF88BB17BA8BBB86E08ABBC89915DF46
:201D4000E2E0F0E08591949123E13CE0225030403F70306C8217930711F0C901B5DED1986F
:201D6000D99880E090E023EB31EFF9013197F1F7019684319105C9F7D19AD99AFDDB7894E6
:201D8000C0E0D0E093E0F92E05E014E0FCDB80919D0090919E00009729F0019790939E0033
:201DA00080939D0080916600823011F580919D0090919E00892BE1F4DA98E199FECF07B6D8
:201DC00000FCFDCFF894E0919B00F0919C00F0925700E895789407B600FCFDCFF894009380
:201DE0005700E895789407B600FCFDCF10926600209729F48BB381278BBBC0E7D7E121975F
:201E0000C5CFEF92FF920F931F93CF93DF9380E8F82E00E0C0E0D0E0102F1F0D11BFF0DC2F
:201E20009C0189E0243338070CF0102FF6942196C830D10511F0012FEFCF115011BF1F5F1E
:201E40007901C12FD0E0219610C0DADC8453994097FF03C0909581959F4F8E159F0514F4AA
:201E600011B77C0181B78F5F81BF81B790E0C817D9075CF711BFDF91CF911F910F91FF907E
:0C1E8000EF900895F894FFCF5AFFC014B3
:00000001FF
