:100000005FCBD1CC78CB77CB76CB75CB74CB73CBA6
:1000100072CB71CB70CB6FCB6ECB6DCB6CCB6BCB14
:100020006ACB69CB68CB0000000000000000000034
:1000300000000000000000000000000000000000C0
:1000400000000000000000000000000000000000B0
:1000500000000000000000000000000000000000A0
:100060000000000000000000000000000000000090
:1016200000000000040309041C0377007700770022
:101630002E00660069007300630068006C002E00D5
:101640006400650016034100560052005500530027
:10165000420042006F006F00740012011001FF0091
:101660000008C016DC050001010200010902120099
:1016700001010080FA0904000000000000000000E1
:10168000000000000000000000000000000000005A
:10169000000000000000000000000000000000004A
:1016A000000000000000000000000000000000003A
:1016B000000000000000000000000000000000002A
:1016C00011241FBECFE5D2E0DEBFCDBF10E0A0E603
:1016D000B0E0EAEEFFE102C005900D92A236B1073C
:1016E000D9F710E0A2E6B0E001C01D92AD39B10714
:1016F000E1F7E3D378C484C485B7826085BF8BB734
:1017000080648BBF08951F93CF93DF936091750022
:10171000635067FDA3C080917200CCE0D0E0C81B8D
:10172000D109C758DF4F809171008D3209F084C014
:10173000683009F091C083EC809365008AE580935E
:101740006000109263008881807639F0CE01F3D278
:10175000282F8F3F09F45FC065C09A8110926E00F8
:101760008981882321F410926F0022E04DC08530DA
:1017700019F49093760047C08630B1F58B818130A3
:1017800019F48AE596E104C0823041F48CE696E1D2
:10179000909374008093730022E122C08330F9F4A7
:1017A0008A81882341F484E296E1909374008093C7
:1017B000730024E015C0813041F488E296E19093F3
:1017C0007400809373002CE10BC0823041F484E4F8
:1017D00096E1909374008093730026E101C020E0AD
:1017E00080E4809363001EC0883021F421E088E704
:1017F00090E00CC0893019F49093780004C08A30CE
:1018000011F421E001C020E08EE690E09093740096
:101810008093730007C0888187FD2E8180E88093C4
:10182000630006C08F81882319F48E81821708F027
:10183000822F8093610010C08091630087FF0CC0ED
:10184000CE01F3D28F3F21F48EE18093600004C07B
:10185000882311F010926100109275008091600051
:1018600084FF58C0809161008F3F09F453C0182F46
:10187000893008F018E0811B809361008091650039
:1018800098E8892780936500112391F18091630086
:1018900087FF08C086E690E0612FA2D2182F89301A
:1018A00098F526C0209173003091740086FF0DC01A
:1018B000A6E6B0E080E090E0F901E80FF91FE491BE
:1018C000ED9301961817C1F708C0912FD901E6E6EC
:1018D000F0E08D9181939150E1F71150812F90E0CC
:1018E0001F5F0196820F931F909374008093730083
:1018F00086E690E0612F40D0612F6C5F6C3041F044
:101900008FEF8093610004C08FEF809361006EE1E0
:101910006093600094E186B3847431F49150D9F7F8
:10192000109276001092700010E0992309F411E0F3
:1019300080916200811739F0112319F4F89412D3C1
:10194000789410936200DF91CF911F910895A82F92
:10195000B92F80E090E041E050EA609530E009C0A6
:101960002D9182279795879510F084279527305ED3
:10197000C8F36F5FA8F30895EADF8D939D930895F0
:10198000A6E088279927AA9569F00197E1F3B29913
:10199000FCCFB29BFECF81E09927A6B3019611F050
:1019A000A474D9F70895CF93CFB7CF93C395B29BC3
:1019B000E9F7B29B0BC0B29B09C0B29B07C0B29BB8
:1019C00005C0B29B03C0B29B01C0D3C00F92DF938E
:1019D000C0917200DD27C758DF4F012EB29B03C0B4
:1019E000DF910F90E6CF2F930F931F934F932FEF1D
:1019F0004F6F06B302FB20F95F933F9350E03BE04B
:101A000065C016B30126502952FDC89556B301276B
:101A100002FB25F92F7306B3B1F05027102712FBF4
:101A200026F906B22230F0F000C016B3012702FBFF
:101A300027F90126502906B22430E8F54F772068AF
:101A400016B30000F6CF50274F7D206206B2102F4C
:101A5000000000C006B300265029102712FB26F90B
:101A600006B2E2CF4F7B06B3206400C0DACF012676
:101A70005029147406B269F14E7F2160012F16B30C
:101A800028C0002650294D7F06B22260102F29C0A1
:101A9000012650294B7F06B22460012F2DC016B3BA
:101AA00001265029477F2860000006B22EC04F7ED5
:101AB00006B3206130C0422706B34993002650295F
:101AC000102706B24FEF12FB20F9297F16B379F2E7
:101AD000147459F10126502906B2012702FB21F99D
:101AE000237F06B371F2002650293150D0F006B2A0
:101AF000102712FB22F9277E16B351F20126502936
:101B0000012702FB06B223F92F7C49F2000006B33D
:101B1000102712FB24F90026502906B22F7939F23A
:101B200070CF10E41ABF002717C03B503195C31B7C
:101B3000D04010E41ABF0881033CF9F00B34E9F0FF
:101B4000209170001981110F1213EDCF093651F158
:101B50000D3211F0013E39F7009377003F915F910C
:101B60004F911F910F912F91DF910F90CAB7C6FD32
:101B70001DCFCF91CFBFCF91189520917700222311
:101B800069F310917500112321F5343022F130935F
:101B9000750020937100109172003BE0311B30936F
:101BA000720019C00091750001309CF40AE5309173
:101BB000600034FD11C000936000C5E6D0E010C0A5
:101BC000052710E000C021C0052710E0C89508BB1C
:101BD00014C03AE501C032ED032EC0E0D0E032E09F
:101BE00017B31464C29A08B317BB54E420E84FEF4C
:101BF00020FF052708BB279517951C3F28F70000F5
:101C00004552B0F720FF0527279508BB17951C3FC5
:101C1000B8F629913A9561F70B7B10917600110F78
:101C200008BBC250D04011F01093700010E41ABFEE
:101C3000046017B31B7B402F4B7B54E05A95F1F7A0
:101C400008BB17BB48BB8ACFF894E199FECF07B613
:101C500000FCFDCFFC0183E080935700E89507B6B8
:101C600000FCFDCF85E080935700E89507B600FCA7
:101C7000FDCF08950F931F93182FB92FF89440E0CC
:101C800050E0A0E001E0FA016591749180E04030FD
:101C9000580711F49B010DC0E0E042305E0721F4CB
:101CA000812F9B2F9C0105C0FA01E058F94E259128
:101CB0003491FA01090100935700E8951124261781
:101CC000370709F0A1E04E5F5F4F40345105D9F668
:101CD0008A2F1F910F910895F89483ED9CE0825014
:101CE00090409F70906CC6DF882319F080E090E0F0
:101CF000ABDF0895CF93DF93E0E8F6E1C591D4918F
:101D0000E2E8F6E125913491CB9B12C0CE018070C0
:101D1000907F8050904C61F4C398F894C901AADF79
:101D2000882319F080E090E08FDFDF70FE010995D5
:101D3000DF91CF910895FC014181413011F4DADF48
:101D400037C0423011F0443089F52281338130931D
:101D50009A00209399001092980010929700809119
:101D60006400882311F021E039C0423019F481E089
:101D700080936400C901805C9F4F8352964110F0AC
:101D8000109264002115310539F480E896E19093B2
:101D90009A00809399001BC020503F4FC1F44430FB
:101DA000B1F410929A001092990011C0433011F0D2
:101DB00020E00EC010928F0080E48093900083E2B8
:101DC00096E1909391008093920024E001C02FEF60
:101DD0008FE890E09093740080937300822F0895B1
:101DE000AC0120E01EC0E0919700F0919800809136
:101DF000990090919A00E80FF91F85919491FA014A
:101E0000E20FF11D8083918380919700909198005B
:101E1000029690939800809397002E5F80349105EE
:101E200010F4261700F3822F0895FF920F931F934B
:101E3000CF93DF938C01809164008130B9F5C0911C
:101E40009900D0919A0070E0FF24F3942DC0F8948B
:101E50002091970030919800A9014C0F5D1FF80167
:101E6000E70FF11DB181A0E0808190E08A2B9B2BD0
:101E7000FA010C01F0925700E895112478942E5F36
:101E80003F4F30939800209397002034310558F04D
:101E900082E0809364008AE090E090939C008093BD
:101EA0009B0081E004C07E5F761788F280E0DF91BE
:101EB000CF911F910F91FF9008951F93CF93DF93C0
:101EC00088E10FB6F89481BD11BC0FBE97EE98BBA8
:101ED00087BB8FEF8BBB1ABAC3980CDFFDDE18BA35
:101EE0001BBA17BA1ABABC98C49880E090E023EBEA
:101EF00031EFF9013197F1F7019688329105C9F771
:101F0000BC9AC49AF9DBF6DEE7DE7894C0E0D0E054
:101F100018E0F9DB80919B0090919C00009729F0DC
:101F2000019790939C0080939B0080916400823085
:101F300081F480919B0090919C00892B51F4C39A6D
:101F4000F8948091990090919A007EDE7894109296
:101F50006400209729F488B3812788BBC0E7D7E1C4
:101F60002197D7CFEF92FF920F931F93CF93DF93D9
:101F700080E8F82E00E0C0E0D0E0102F1F0D11BF68
:101F8000FFDC9C0189E0243338070CF0102FF69415
:101F90002196C830D10511F0012FEFCF115011BF9C
:101FA0001F5F7901C12FD0E0219610C0E9DC845376
:101FB000994097FF03C0909581959F4F8E159F057F
:101FC00014F411B77C0181B78F5F81BF81B790E0B6
:101FD000C817D9075CF711BFDF91CF911F910F91FF
:0A1FE000FF90EF900895F894FFCFF2
:021FEA005AFF9C
:00000001FF
