:1000000086C011C59FC09EC09DC09CC09BC09AC0A9
:1000100099C098C097C096C095C094C093C092C034
:10002000A9C290C08FC009022200010100803209DC
:100030000400000103000000092101010001225019
:100040000007058103080064120110010000000888
:10005000424255E409000102000124034200690004
:1000600072006B006C006500720020005300690094
:100070006D0070006C0065004800490044001603E4
:100080006200690072006B006C00650072002E0057
:100090007300650004030904427574746F6E210DCA
:1000A0000A0042210A0005010902A1010901A1007B
:1000B000050919012903150025019503750185011D
:1000C0008102950175058103C0C00B00000100A1EC
:1000D000000501751095010900857CB102090085B4
:1000E0007DB102750895440900857EB1000900952F
:1000F00009857FB100C045464765666700202B2D06
:100100002E30313233343536373839680000112417
:100110001FBECFE5D2E0DEBFCDBF10E0A0E6B0E06D
:10012000E8E8F3E102C005900D92A439B107D9F7D0
:1001300021E0A4E9B0E001C01D92A637B207E1F7C3
:10014000D0D520C95DCFCF93209145012E31F1F05C
:100150002091450124FF0BC03091460128E8232758
:1001600020934601FC01A7E4B1E0862F04C02AE5F4
:1001700020934501F7CF91919D938150E1F7C62FD0
:1001800087E491E039D4CC5FC0934501CF910895C5
:10019000CF93DF9360915601635067FDE9C0809172
:1001A0005301CCE0D0E0C81BD109C65ADE4F809184
:1001B00052018D3209F0CBC0683009F0D7C083EC12
:1001C00080933A018AE5809361001092950028811E
:1001D000822F807631F0CE0196D38F3F09F4A6C0EE
:1001E000ACC09A813C81109243018981811113C076
:1001F0002F71223051F4313841F49091450181E062
:100200009E3109F080E0809343011092440123E481
:1002100031E082E086C0282F2D7F213081F49111BA
:100220007DC0313809F07AC0813011F08EE101C013
:100230008AE5809345018BE4809346016FC0853049
:1002400019F4909357016AC0863009F04EC08B8133
:10025000813041F488E490E09093550180935401FB
:1002600082E13FC0823041F486E290E090935501F4
:100270008093540182E235C08330F1F4911108C0BB
:1002800084E990E0909355018093540184E029C063
:10029000913041F48EE790E09093550180935401A2
:1002A00086E11FC09230E1F48AE590E09093550119
:1002B0008093540184E215C0813241F488E390E0D8
:1002C000909355018093540189E00BC0823241F430
:1002D00086EA90E0909355018093540180E501C037
:1002E00080E090E49093950028C0883081F08930B8
:1002F00019F49093590107C08A3061F08B3071F482
:100300008BE4809346018AE58093450107C029E587
:1003100031E002C023E431E081E003C023E431E0B6
:1003200080E0309355012093540107C0988197FDD8
:100330008E8190E89093950007C09F81911104C031
:100340009E81981708F4892F809360000FC08091D8
:10035000950087FF0BC0CE011ED38F3F21F48EE1A5
:100360008093610003C081111092600010925601C9
:100370008091610084FF55C0809160008F3F09F437
:1003800050C0C82F893008F0C8E08C1B80936000F3
:1003900090913A0188E8892780933A01CC2309F4A7
:1003A0005CC02091950027FF08C06C2F8BE391E083
:1003B000C8D2C82F893078F523C08091540190911C
:1003C000550126FF0AC0ABE3B1E0FC012C2F3491AC
:1003D0003D9331962150D9F708C0DC01EBE3F1E001
:1003E0002C2F3D9131932150E1F72FEF2C0F30E06E
:1003F0002F5F3F4F820F931F9093550180935401BD
:100400006C2F8BE391E0F8D2CC5FCC3041F08FEFD2
:100410008093600004C08FEF80936000CEE1C093B2
:10042000610084E196B3947449F48150D9F7109235
:100430005701109251019AE590934501C1E0811155
:10044000C0E090919400C91771F0882319F0F894D6
:100450003AD17894C093940006C060E08BE391E0B9
:10046000CBD2C4E0D4CFDF91CF91089585B782601D
:1004700085BF8BB780648BBFE5E4F1E08BE48183BB
:100480008AE580830895A0E0B0E0E8E4F2E067C682
:10049000EC018B01EC80FD80C880D980072E000C18
:1004A000880B990B25E030E040E050E02AD6472E3B
:1004B000582E692E772467FC7A94B7010F2C000C14
:1004C000880B990B2AE030E040E050E01AD6BB27B9
:1004D00097FDBA95A92F982F872F3201680E791EA4
:1004E0006E817F81072E000C880B990B25E030E090
:1004F00040E050E006D6BB2797FDBA95A92F982F6C
:10050000872F4301880E991EB6010D2C000C880B15
:10051000990B2EE931E040E050E0F3D5BB2797FD81
:10052000BA95A92F982F872F5401A80EB91E6A815A
:100530007B81072E000C880B990B2BE43FEF4FEFCC
:100540005FEFDFD5BB2797FDBA95A92F982F872F8F
:100550008A0D9B1D092E000CAA0BBB0BDB82CA82E5
:1005600099838883FF82EE821D830C83CDB7DEB72B
:10057000E0E111C678941F920F920FB60F921124EA
:100580000F900FBE0F901F90189580E0089580E0A7
:10059000089586958695982F987F892F880F880FC4
:1005A0009695892B08958C7F282F30E0A90194E03F
:1005B000440F551F9A95E1F7220F331F220F331F67
:1005C000242B822B089598E087FF02C0DF9A01C098
:1005D000DF98DE9A880FDE989150B1F708951F9347
:1005E000CF93DF93182FD62FC42F8FEFECDF812FFF
:1005F000EADF8D2FE8DF8C2FE6DFDF91CF911F91AF
:100600000895A9E0B0E0E6E0F3E0ADC59C0197FDF8
:100610004F9645E0959587954A95E1F766E070E03D
:1006200089D5FC01C90160E270E084D57C01A0E4B9
:10063000B0E04D01881A990ACF0163E070E050D50F
:100640008D599F4FDC012D913D914C912F8338871F
:100650004987CF01019663E070E042D58D599F4FE5
:10066000FC012081318142812C833D834E83FE0138
:1006700037966E0184E0C80ED11C8E010F5F1F4FAC
:100680005E01AAE0AA0EB11C8191D6014D916D01C7
:1006900090E0B40125D59C01842F90E0B70120D5CE
:1006A000820F931F26E0969587952A95E1F7D8014A
:1006B0008D938D01AE16BF0639F769817A818B81E2
:1006C0002996ECE06CC5A0E0B0E0E8E6F3E050C5A8
:1006D00008E010E0C0E0D0E8DD2EDC0ED1BE90D105
:1006E0007C0184E3E81689E0F8060CF4CD2DD6955C
:1006F0000150110989F78FEF8C0F81BF0C2F10E08B
:100700000F5F1F4F81B790E0081719078CF078D161
:100710008453994097FF03C09195819591098E1557
:100720009F0514F4C1B77C0181B78F5F81BFEACF09
:10073000C1BFCDB7DEB7E7E037C580E090E02FEF6F
:100740003FEFFC01EE0FFF1FEF55FF4F318320837A
:10075000019688309105A9F70895CF932091A000C4
:10076000820F911D8093A000492F552760E070E013
:100770008FEF9FEFFB01EE0FFF1FDF01AF55BF4F64
:100780002D913C9111972F3FCFEF3C0789F04217F5
:10079000530758F4241B350B2817390708F4C901EF
:1007A000EF55FF4F3183208303C011961C921E9298
:1007B0006F5F7F4F68307105E9F6CF910895E82F9C
:1007C000F0E0EE0FFF1FEF55FF4F80819181892BE5
:1007D00039F48FEF9FEF9183808381E090E008955B
:1007E00080E090E00895E82FF0E0EE0FFF1FEF5556
:1007F000FF4F8FEF9FEF918380830895E82FF0E004
:10080000EE0FFF1FEF55FF4F118210820895E82F62
:10081000F0E0EE0FFF1FEF55FF4F718360830895E7
:10082000FC012381918181E0820F8923328183132E
:1008300007C0308130FF0DC031E0380F9323928321
:10084000DF01A20FB11D14966C938383862F90E075
:1008500008958FEF9FEF0895FC019281838198178F
:1008600059F0DF01A90FB11D14962C9130E09F5F64
:1008700081819823928302C02FEF3FEFC901089531
:10088000CF93DF93EC01CE01E7DF8F3F2FEF92078D
:10089000D1F3DF91CF910895FC018091B3008111D4
:1008A00008C08FE78093B70081E08093B600809303
:1008B000B300808191818E3B9A4B31F08EEB9AEBA5
:1008C000918380831482158208951F93CF93DF93C1
:1008D000182FFB01C485D585CE01DEDF612FCE0147
:1008E00002969EDFDF91CF911F910895CF93DF9302
:1008F000FC01C485D585CE01CFDFCE010296ACDFE9
:10090000DF91CF910895FC0182818093B1009081A5
:100910009076903279F49181913019F48E3739F0D4
:1009200009C0993039F48C3741F08F3719F410929F
:10093000B20003C0CF0129DE08958FEF089580E053
:1009400008952091B1002E3711F52091B200DC01FD
:10095000962F920F2917B9F0243030F4E22FF0E0EF
:10096000EA54FF4F80810BC0E091B800E450E20FE1
:100970008091B700E823F0E0EC54FF4F86818C9320
:100980002F5F1196E7CF2093B200862F0895D7DF0F
:10099000089580E008952091B1002C3731F4FC01D6
:1009A00081818093B800862F0895F3DF0895A82FE2
:1009B000B92F8FEF9FEF1BC02D918227282F2295F3
:1009C0002827722F2695269527272395269521706F
:1009D000782F892F82272195207C922F22277695A8
:1009E0002795972782277695279597278227615005
:1009F00018F7809590950895DADF8D939D9308956B
:100A0000A6E088279927AA9569F00197E1F3B299A2
:100A1000FCCFB29BFECF81E09927A6B3019611F0DF
:100A2000A474D9F70895CF93CFB7CF93C395B29B52
:100A3000E9F7B29B0BC0B29B09C0B29B07C0B29B47
:100A400005C0B29B03C0B29B01C0D5C00F92DF931B
:100A5000C0915301DD27C65ADE4F012EB29B03C061
:100A6000DF910F90E6CF2F930F931F934F932FEFAC
:100A70004F6F06B302FB20F95F933F9350E03BE0DA
:100A800065C016B30126502952FDC89556B30127FB
:100A900002FB25F92F7306B3B1F05027102712FB84
:100AA00026F906B22230F0F000C016B3012702FB8F
:100AB00027F90126502906B22430E8F54F7720683F
:100AC00016B30000F6CF50274F7D206206B2102FDC
:100AD000000000C006B300265029102712FB26F99B
:100AE00006B2E2CF4F7B06B3206400C0DACF012606
:100AF0005029147406B269F14E7F2160012F16B39C
:100B000028C0002650294D7F06B22260102F29C030
:100B1000012650294B7F06B22460012F2DC016B349
:100B200001265029477F2860000006B22EC04F7E64
:100B300006B3206130C0422706B3499300265029EE
:100B4000102706B24FEF12FB20F9297F16B379F276
:100B5000147459F10126502906B2012702FB21F92C
:100B6000237F06B371F2002650293150D0F006B22F
:100B7000102712FB22F9277E16B351F201265029C5
:100B8000012702FB06B223F92F7C49F2000006B3CD
:100B9000102712FB24F90026502906B22F7939F2CA
:100BA00070CF10E41ABF002719C03B503195C31B0A
:100BB000D04010E41ABF0881033C09F10B34F9F06E
:100BC000209151011981110F1213EDCF4A81441F59
:100BD000093651F10D3211F0013E29F70093580109
:100BE0003F915F914F911F910F912F91DF910F9046
:100BF000CAB7C6FD1BCFCF91CFBFCF91189520911B
:100C00005801222369F310915601112379F53430EC
:100C10007AF13093560120935201109153013BE039
:100C2000311B3093530124C0009156010130F4F47C
:100C30000AE54F7049F43091610034FD1AC0009309
:100C40006100CAE3D1E019C03091450134FD11C003
:100C500000934501C6E4D1E010C0052710E000C0B4
:100C600021C0052710E0C89508BB14C03AE501C0B3
:100C700032ED032EC0E0D0E032E017B31464C29A24
:100C800008B317BB54E420E84FEF20FF052708BB4B
:100C9000279517951C3F28F700004552B0F720FF15
:100CA0000527279508BB17951C3FB8F629913A955B
:100CB00061F70B7B10915701110F08BBC250D04058
:100CC00011F01093510110E41ABF046017B31B7B9D
:100CD000402F4B7B54E05A95F1F708BB17BB48BB3C
:100CE0007FCFA8E0B0E0E6E7F6E037C288E09E01FB
:100CF0002F5F3F4F7901F901282F11922A95E9F7CB
:100D0000D398DB9ABB9AC398C398B99AC198C198F3
:100D100090EE95BB91E093BF10BE8FBD17BC16BC83
:100D200010B819BCD498DC9AD09AD198D998D89890
:100D300086E890E0909373018093720188E790E0D9
:100D4000909371018093700182EA90E09F938F935A
:100D500096D2BC98C4989FE088E10FB6F894A89505
:100D600081BD0FBE91BD82DB89B7816089BF789458
:100D7000BC9AC49AC39AD29AB89AC098DA98C19881
:100D800060ED77E080E043DD62E070E081E03FDD30
:100D900060ED77E082E03BDD68EE73E0C70173DB76
:100DA0000F900F9000E080E010E08824839498E991
:100DB000C92E90E0D92E28E0322E3EE8232EA12C19
:100DC000B12C9EB4292D281B8091960090919700FC
:100DD000820F911D9093970080939600A89508B676
:100DE00002FE06C088B7846088BF80E092E0B5DC70
:100DF000CFD9CC9909C0C19A111108C0DF92CF9206
:100E00003ED20F900F9002C010E001C011E080911F
:100E1000450184FF0CC080919900181741F0809221
:100E200098001093990062E088E990E08CD980E006
:100E3000C6DC892B39F064EF71E080E0E8DC88B330
:100E4000832588BB82E0BBDC892B41F06AEF70E030
:100E500082E0DDDC98B382E0892788BB4090960071
:100E600050909700612C712C6091620070E080E0DE
:100E700090E023E032E040E050E043D146165706D0
:100E80006806790638F027B8369A809162008F5F3D
:100E90008093620087B18F738E3061F4349B0AC0F7
:100EA000053030F464B175B1043011F4C701EBDAE8
:100EB0000F5F349ACB9B02C0892D83CFF894D398CF
:100EC000DB9AF5010995F8CFABE0B0E0E9E6F7E091
:100ED00048C16C017B013A01FC01178216828381B3
:100EE00081FFF9C0CE0101964C01F601B380F701F4
:100EF000B3FC0591B3FE01917F01002309F4E7C023
:100F0000053249F4B3FC0591B3FE01917F0105322E
:100F100011F010E017C0B601802F90E074D153019A
:100F20003501E3CF002309F4D2C0602F70E08DEFCC
:100F300090E05ED1892B49F0F701B3FC0591B3FE37
:100F400001917F0117FFEECF04C0033239F00C3658
:100F500019F0011105C0BBC01068EECF10E1ECCF55
:100F6000602F70E086EF90E043D1892B41F0530170
:100F7000F4E0AF0EB11CB6018FE390E010C0033671
:100F800031F0033771F0033501F511600AC05301E8
:100F900082E0A80EB11CB601F3018081918133D1AA
:100FA000BFCF5301F2E0AF0EB11CF301608071803E
:100FB000F30110FD859110FF81913F01882309F411
:100FC000AFCFB60190E01FD1F3CF043611F0093650
:100FD00021F5530117FF09C0F4E0AF0EB11CF30176
:100FE00060817181828193810AC0F2E0AF0EB11CF1
:100FF000F30160817181072E000C880B990B1F7E15
:1010000097FF08C090958095709561957F4F8F4FA1
:101010009F4F10642AE030E030C0003791F040F478
:101020000835A1F00F3609F052C028E030E011C0B9
:10103000053719F0083731F04AC01F7E2AE030E04A
:1010400008C01061146220E130E003C0146020E1A8
:1010500032E0530117FF09C0F4E0AF0EB11CF301F9
:10106000608171818281938108C0F2E0AF0EB11C72
:10107000F3016081718180E090E0A40123D1082F09
:10108000081916FF04C0B6018DE290E0BCD014FF31
:1010900013C0FE01E00FF11D8081803369F0B601BD
:1010A00080E390E0B0D012FF07C01072812F90E073
:1010B000B601885A9F4FA7D00150F401E00FF11DEF
:1010C0008081B60190E09FD00111F6CF29CFF601C3
:1010D0008681978102C08FEF9FEF2B96EEE05DC077
:1010E0000024552704C0080E591F880F991F009728
:1010F00029F076956795B8F37105B9F7802D952F8E
:101100000895EE27FF27AA27BB2708C0A20FB31F09
:10111000E41FF51F220F331F441F551F9695879517
:101120007795679598F37040A9F7009799F7BD01F7
:10113000CF01089597FB072E16F4009406D077FD93
:1011400008D042D007FC05D03EF4909581959F4F82
:101150000895709561957F4F08952F923F924F9219
:101160005F926F927F928F929F92AF92BF92CF9237
:10117000DF92EF92FF920F931F93CF93DF93CDB740
:10118000DEB7CA1BDB0B0FB6F894DEBF0FBECDBFB8
:1011900009942A88398848885F846E847D848C8489
:1011A0009B84AA84B984C884DF80EE80FD800C8192
:1011B0001B81AA81B981CE0FD11D0FB6F894DEBF75
:1011C0000FBECDBFED010895AA1BBB1B51E107C0A7
:1011D000AA1FBB1FA617B70710F0A61BB70B881FC7
:1011E000991F5A95A9F780959095BC01CD01089556
:1011F000FC010590061621F00020D9F7C0010895E2
:101200003197CF0108950F931F93CF93DF93FB0185
:10121000238121FD03C08FEF9FEF2CC022FF16C05A
:1012200046815781248135814217530744F4A081B8
:10123000B1819D012F5F3F4F318320838C932681A5
:1012400037812F5F3F4F3783268314C08B01EC011A
:10125000FB010084F185E02D0995892BE1F6D80189
:1012600016968D919C911797019617969C938E9345
:101270001697CE01DF91CF911F910F910895A0E0B5
:10128000B0E0E4E4F9E077CFAE01495F5F4FDA0107
:101290006D917D91AD0100E711E0F80182819381AC
:1012A000DC0113962C911397286013962C930CDE77
:1012B000D8011296ED91FC9113972381277F238308
:1012C000E4E075CFFA01AA27283061F1203191F1CD
:1012D000E8946F936E7F6E5F7F4F8F4F9F4FAF4F3E
:1012E000B1E040D0B4E03ED0670F781F891F9A1F4D
:1012F000A11D680F791F8A1F911DA11D6A0F711D05
:10130000811D911DA11D22D009F468943F91062EE4
:10131000000C3019000C000C3019305D3193CEF602
:10132000CF010895462F4770405D4193B3E00FD041
:10133000C9F7F6CF462F4F70405D4A3318F0495D2C
:1013400031FD4052419302D0A9F7EACFB4E0A6950F
:101350009795879577956795BA95C9F70097610531
:10136000710508959B01AC010A2E06945795479587
:1013700037952795BA95C9F7620F731F841F951F7C
:08138000A01D0895F894FFCFB1
:10138800FF5A05C800C8C80000C8C80000C8000047
:10139800C8C80000C8C800C800000001000000005C
:1013A8000000760400000000000200000000650450
:0413B8000000B4007D
:00000001FF
