:1000000081C070C49AC099C098C097C096C095C06E
:1000100094C093C092C091C090C08FC08EC08DC05C
:10002000A4C28BC08AC009022200010100803209EB
:100030000400000103000000092101010001225019
:100040000007058103080064120110010000000888
:10005000424255E409000102000124034200690004
:1000600072006B006C006500720020005300690094
:100070006D0070006C0065004800490044001603E4
:100080006200690072006B006C00650072002E0057
:10009000730065000403090442210A0005010902F6
:1000A000A1010901A1000509190129031500250174
:1000B0009503750185018102950175058103C0C015
:1000C0000B00000100A100050175109501090085D4
:1000D0007CB1020900857DB102750895440900854F
:1000E0007EB10009009509857FB100C0454647658E
:1000F000666700202B2D2E303132333435363738B9
:100100003968000011241FBECFE5D2E0DEBFCDBFAD
:1001100010E0A0E6B0E0E2E0F3E102C005900D924D
:10012000AE3BB107D9F721E0AEEBB0E001C01D92C4
:10013000A83CB207E1F734D5E2C862CFCF93209153
:1001400097012E31F1F02091970124FF0BC03091DF
:10015000980128E8232720939801FC01A9E9B1E040
:10016000862F04C02AE520939701F7CF91919D93A4
:100170008150E1F7C62F89E991E09DD3CC5FC09310
:100180009701CF910895CF93DF936091A8016350B9
:1001900067FDE9C08091A501CCE0D0E0C81BD10982
:1001A000C455DE4F8091A4018D3209F0CBC0683078
:1001B00009F0D7C083EC80938C018AE580936100BD
:1001C0001092BF002881822F807631F0CE01FAD2C2
:1001D0008F3F09F4A6C0ACC09A813C811092950172
:1001E0008981811113C02F71223051F4313841F4CB
:1001F0009091970181E09E3109F080E08093950114
:100200001092960125E931E082E086C0282F2D7FEB
:10021000213081F491117DC0313809F07AC08130EC
:1002200011F08EE101C08AE5809397018BE4809301
:1002300098016FC0853019F49093A9016AC0863087
:1002400009F04EC08B81813041F488E490E09093B6
:10025000A7018093A60182E13FC0823041F486E28B
:1002600090E09093A7018093A60182E235C083308D
:10027000F1F4911108C084E990E09093A701809374
:10028000A60184E029C0913041F48EE790E090937C
:10029000A7018093A60186E11FC09230E1F48AE5B0
:1002A00090E09093A7018093A60184E215C081326B
:1002B00041F488E390E09093A7018093A60189E040
:1002C0000BC0823241F48CE990E09093A7018093B7
:1002D000A60180E501C080E090E49093BF0028C0B3
:1002E000883081F0893019F49093AB0107C08A30CF
:1002F00061F08B3071F48BE4809398018AE58093F0
:10030000970107C02BEA31E002C025E931E081E026
:1003100003C025E931E080E03093A7012093A601D6
:1003200007C0988197FD8E8190E89093BF0007C029
:100330009F81911104C09E81981708F4892F8093A2
:1003400060000FC08091BF0087FF0BC0CE0182D23A
:100350008F3F21F48EE18093610003C081111092E0
:1003600060001092A8018091610084FF55C08091C7
:1003700060008F3F09F450C0C82F893008F0C8E0F2
:100380008C1B8093600090918C0188E88927809372
:100390008C01CC2309F45CC02091BF0027FF08C06A
:1003A0006C2F8DE891E02CD2C82F893078F523C0CE
:1003B0008091A6019091A70126FF0AC0ADE8B1E0A7
:1003C000FC012C2F34913D9331962150D9F708C070
:1003D000DC01EDE8F1E02C2F3D9131932150E1F764
:1003E0002FEF2C0F30E02F5F3F4F820F931F909322
:1003F000A7018093A6016C2F8DE891E05CD2CC5FC1
:10040000CC3041F08FEF8093600004C08FEF809379
:100410006000CEE1C093610084E196B3947449F426
:100420008150D9F71092A9011092A3019AE59093F7
:100430009701C1E08111C0E09091BE00C91771F031
:10044000882319F0F8949ED07894C093BE0006C01B
:1004500060E08DE891E02FD2C4E0D4CFDF91CF915E
:10046000089585B7826085BF8BB780648BBFE7E94D
:10047000F1E08BE481838AE580830895A0E0B0E019
:10048000E3E4F2E02AC6EC018B01EC80FD80C88039
:10049000D980072E000C880B990B25E030E040E056
:1004A00050E0ECD5472E582E692E772467FC7A94BD
:1004B000B7010F2C000C880B990B2AE030E040E0CC
:1004C00050E0DCD5BB2797FDBA95A92F982F872F31
:1004D0003201680E791E6E817F81072E000C880B19
:1004E000990B25E030E040E050E0C8D5BB2797FDF0
:1004F000BA95A92F982F872F4301880E991EB60110
:100500000D2C000C880B990B2EE931E040E050E0F7
:10051000B5D5BB2797FDBA95A92F982F872F5401E2
:10052000A80EB91E6A817B81072E000C880B990BDF
:100530002BE43FEF4FEF5FEFA1D5BB2797FDBA95B7
:10054000A92F982F872F8A0D9B1D092E000CAA0B0F
:10055000BB0BDB82CA8299838883FF82EE821D8374
:100560000C83CDB7DEB7E0E1D4C578941F920F922B
:100570000FB60F9211240F900FBE0F901F90189579
:1005800080E00895A0E0B0E0E7ECF2E0AFC508E05D
:1005900010E0C0E0D0E8DD2EDC0ED1BE90D17C01B1
:1005A00084E3E81689E0F8060CF4CD2DD6950150C9
:1005B000110989F78FEF8C0F81BF0C2F10E00F5FAF
:1005C0001F4F81B790E0081719078CF078D184533A
:1005D000994097FF03C09195819591098E159F05CC
:1005E00014F4C1B77C0181B78F5F81BFEACFC1BF6F
:1005F000CDB7DEB7E7E096C580E090E02FEF3FEFA4
:10060000FC01EE0FFF1FED50FF4F31832083019659
:1006100088309105A9F70895CF932091F200820FB9
:10062000911D8093F200492F552760E070E08FEF15
:100630009FEFFB01EE0FFF1FDF01AD50BF4F2D916C
:100640003C9111972F3FCFEF3C0789F0421753079A
:1006500058F4241B350B2817390708F4C901ED504D
:10066000FF4F3183208303C011961C921E926F5F4F
:100670007F4F68307105E9F6CF910895E82FF0E0DB
:10068000EE0FFF1FED50FF4F80819181892B39F4D0
:100690008FEF9FEF9183808381E090E0089580E069
:1006A00090E00895E82FF0E0EE0FFF1FED50FF4FB0
:1006B0008FEF9FEF918380830895E82FF0E0EE0F96
:1006C000FF1FED50FF4F118210820895E82FF0E0D8
:1006D000EE0FFF1FED50FF4F718360830895FC0103
:1006E0002381918181E0820F89233281831307C0A6
:1006F000308130FF0DC031E0380F93239283DF014A
:10070000A20FB11D14966C938383862F90E00895F9
:100710008FEF9FEF0895FC0192818381981759F024
:10072000DF01A90FB11D14962C9130E09F5F8181EC
:100730009823928302C02FEF3FEFC9010895CF9312
:10074000DF93EC01CE01E7DF8F3F2FEF9207D1F36C
:10075000DF91CF910895FC0180910501811108C0BE
:100760008FE78093090181E0809308018093050160
:10077000808191818E3B9A4B31F08EEB9AEB918385
:1007800080831482158208951F93CF93DF93182FCF
:10079000FB01C485D585CE01DEDF612FCE01029637
:1007A0009EDFDF91CF911F910895CF93DF93FC01DE
:1007B000C485D585CE01CFDFCE010296ACDFDF91B7
:1007C000CF910895FC0182818093030190819076FE
:1007D000903279F49181913019F48E3739F009C053
:1007E000993039F48C3741F08F3719F410920401A5
:1007F00003C0CF01C5DE08958FEF089580E008950E
:10080000209103012E3711F520910401DC01962F70
:10081000920F2917B9F0243030F4E22FF0E0E85FAE
:10082000FE4F80810BC0E0910A01E450E20F8091FD
:100830000901E823F0E0EA5FFE4F86818C932F5F89
:100840001196E7CF20930401862F0895D7DF0895EE
:1008500080E00895209103012C3731F4FC0181815F
:1008600080930A01862F0895F3DF0895A82FB92FEA
:100870008FEF9FEF1BC02D918227282F22952827CD
:10088000722F269526952727239526952170782F58
:10089000892F82272195207C922F222776952795D4
:1008A000972782277695279597278227615018F7F3
:1008B000809590950895DADF8D939D930895A6E035
:1008C00088279927AA9569F00197E1F3B299FCCF9F
:1008D000B29BFECF81E09927A6B3019611F0A474D4
:1008E000D9F70895CF93CFB7CF93C395B29BE9F7CC
:1008F000B29B0BC0B29B09C0B29B07C0B29B05C0A4
:10090000B29B03C0B29B01C0D5C00F92DF93C091D0
:10091000A501DD27C455DE4F012EB29B03C0DF9138
:100920000F90E6CF2F930F931F934F932FEF4F6F9F
:1009300006B302FB20F95F933F9350E03BE065C0B4
:1009400016B30126502952FDC89556B3012702FB64
:1009500025F92F7306B3B1F05027102712FB26F9A3
:1009600006B22230F0F000C016B3012702FB27F9CF
:100970000126502906B22430E8F54F77206816B3D7
:100980000000F6CF50274F7D206206B2102F0000E6
:1009900000C006B300265029102712FB26F906B224
:1009A000E2CF4F7B06B3206400C0DACF0126502986
:1009B000147406B269F14E7F2160012F16B328C06E
:1009C000002650294D7F06B22260102F29C0012633
:1009D00050294B7F06B22460012F2DC016B301268B
:1009E0005029477F2860000006B22EC04F7E06B314
:1009F000206130C0422706B34993002650291027B2
:100A000006B24FEF12FB20F9297F16B379F2147466
:100A100059F10126502906B2012702FB21F9237F53
:100A200006B371F2002650293150D0F006B21027DB
:100A300012FB22F9277E16B351F201265029012715
:100A400002FB06B223F92F7C49F2000006B31027FF
:100A500012FB24F90026502906B22F7939F270CF03
:100A600010E41ABF002719C03B503195C31BD0407A
:100A700010E41ABF0881033C09F10B34F9F020910E
:100A8000A3011981110F1213EDCF4A81441F0936BA
:100A900051F10D3211F0013E29F70093AA013F9167
:100AA0005F914F911F910F912F91DF910F90CAB7D6
:100AB000C6FD1BCFCF91CFBFCF9118952091AA0132
:100AC000222369F31091A801112379F534307AF1CA
:100AD0003093A8012093A4011091A5013BE0311BA4
:100AE0003093A50124C00091A8010130F4F40AE577
:100AF0004F7049F43091610034FD1AC000936100D9
:100B0000CCE8D1E019C03091970134FD11C00093B9
:100B10009701C8E9D1E010C0052710E000C021C04E
:100B2000052710E0C89508BB14C03AE501C032EDB6
:100B3000032EC0E0D0E032E017B31464C29A08B3C9
:100B400017BB54E420E84FEF20FF052708BB27958B
:100B500017951C3F28F700004552B0F720FF0527E6
:100B6000279508BB17951C3FB8F629913A9561F770
:100B70000B7B1091A901110F08BBC250D04011F09E
:100B80001093A30110E41ABF046017B31B7B402F1E
:100B90004B7B54E05A95F1F708BB17BB48BB7FCF9E
:100BA000A3E1B0E0E5EDF5E096C288E01E012BE0A0
:100BB000220E311CF101282F11922A95E9F7D398C2
:100BC000DB9ABB9AC398C398B99AC198C19890EE22
:100BD00095BB91E093BF10BE8FBD17BC16BC10B87B
:100BE00019BCD498DC9AD09AD198D998D89882E731
:100BF00090E09093C5018093C40184E690E09093C7
:100C0000C3018093C20188E990E09F938F93F4D24F
:100C1000BC98C4989FE088E10FB6F894A89581BD70
:100C20000FBE91BD1EDC89B7816089BF7894BC9AE4
:100C3000C49AC39AD29AB89AC098DA98C19860EDCB
:100C400077E080E043DD62E070E081E03FDD60ED71
:100C500077E082E03BDD68EE73E0C1010FDC882EB7
:100C60009B8B0F900F90B12CC12CD12C10E080E009
:100C7000E12CF12C00E0A12C9EB4292D281B8091A1
:100C8000E8009091E900820F911D9093E900809314
:100C9000E800A89508B602FE06C088B7846088BF41
:100CA00080E092E0B9DC6FDACC9903C0C19A81E0B0
:100CB00001C080E09091970194FF0DC09091EB00EE
:100CC000891749F091E09093EA008093EB0062E08D
:100CD0008AEE90E033DA80E0D1DC892B21F064EFFA
:100CE00071E080E0F3DC82E0C9DC892B21F06AEF5F
:100CF00070E082E0EBDC81E0C1DC892B09F45BC0B1
:100D000000916200E1E00E270093620000FF02C044
:100D1000C39A01C0C39864E670E081E0D7DCD8983C
:100D2000F3E9F6B913B8D298DA98A3941123C9F16C
:100D3000EB2DF0E0EE0FFF1FE054FF4F20813181DB
:100D400089859A85C80ED91E91838083C21AD30AD9
:100D5000B39423E12B1508F4B12C2A2D2F7009F53B
:100D6000EB89EF938F92FF92EF929F938F938885F9
:100D70008F938F818F938E818F938D818F93C601F7
:100D800064E170E094D17F936F931F921F9380E88A
:100D900090E09F938F931DD20FB6F894DEBF0FBEE5
:100DA000CDBF1092E9001092E80082E080936300CA
:100DB00010E0E12CF12CCA9909C0C198E114F104AA
:100DC00031F4E090E800F090E90001C0C19A409051
:100DD000E8005090E900612C712C6091630070E094
:100DE00080E090E023E032E040E050E047D146165A
:100DF00057066806790640F09EE897B9369A8091C2
:100E000063008F5F8093630087B18F738E30F9F436
:100E1000349B1DC01530C8F464B175B1E12FF0E00A
:100E2000EE0FFF1F81E090E08C0F9D1FE80FF91F70
:100E300071836083143049F400FF03C0719561959C
:100E40007109C1011BDB882E9B8B1F5F349ACB9BE2
:100E500002C0892D11CFF894D398DB9AE0E0F0E03E
:100E60000995F7CFABE0B0E0E7E3F7E038C16C01FC
:100E70007B013A01FC0117821682838181FFF9C050
:100E8000CE0101964C01F601B380F701B3FC059148
:100E9000B3FE01917F01002309F4E7C0053249F454
:100EA000B3FC0591B3FE01917F01053211F010E012
:100EB00017C0B601802F90E050D153013501E3CF28
:100EC000002309F4D2C0602F70E083EF90E03AD1A4
:100ED000892B49F0F701B3FC0591B3FE01917F0125
:100EE00017FFEECF04C0033239F00C3619F00111B0
:100EF00005C0BBC01068EECF10E1ECCF602F70E0F2
:100F00008CEE90E01FD1892B41F05301F4E0AF0E3D
:100F1000B11CB6018FE390E010C0033631F0033707
:100F200071F0033501F511600AC0530182E0A80E8B
:100F3000B11CB601F301808191810FD1BFCF530164
:100F4000F2E0AF0EB11CF30160807180F30110FD7F
:100F5000859110FF81913F01882309F4AFCFB6013D
:100F600090E0FBD0F3CF043611F0093621F55301A0
:100F700017FF09C0F4E0AF0EB11CF301608171816D
:100F8000828193810AC0F2E0AF0EB11CF30160814F
:100F90007181072E000C880B990B1F7E97FF08C0EC
:100FA00090958095709561957F4F8F4F9F4F1064FE
:100FB0002AE030E030C0003791F040F40835A1F06D
:100FC0000F3609F052C028E030E011C0053719F0A3
:100FD000083731F04AC01F7E2AE030E008C01061B7
:100FE000146220E130E003C0146020E132E05301DC
:100FF00017FF09C0F4E0AF0EB11CF30160817181ED
:101000008281938108C0F2E0AF0EB11CF3016081D0
:10101000718180E090E0A40112D1082F081916FF19
:1010200004C0B6018DE290E098D014FF13C0FE0119
:10103000E00FF11D8081803369F0B60180E390E01C
:101040008CD012FF07C01072812F90E0B601885A31
:101050009F4F83D00150F401E00FF11D8081B60154
:1010600090E07BD00111F6CF29CFF60186819781E0
:1010700002C08FEF9FEF2B96EEE04DC0EE27FF27CB
:10108000AA27BB2708C0A20FB31FE41FF51F220F1A
:10109000331F441F551F969587957795679598F34D
:1010A0007040A9F7009799F7BD01CF010895AA1BD9
:1010B000BB1B51E107C0AA1FBB1FA617B70710F043
:1010C000A61BB70B881F991F5A95A9F78095909575
:1010D000BC01CD0108952F923F924F925F926F9283
:1010E0007F928F929F92AF92BF92CF92DF92EF92B8
:1010F000FF920F931F93CF93DF93CDB7DEB7CA1B39
:10110000DB0B0FB6F894DEBF0FBECDBF09942A8863
:10111000398848885F846E847D848C849B84AA840B
:10112000B984C884DF80EE80FD800C811B81AA8198
:10113000B981CE0FD11D0FB6F894DEBF0FBECDBF63
:10114000ED010895FC010590061621F00020D9F765
:10115000C00108953197CF0108950F931F93CF9346
:10116000DF93FB01238121FD03C08FEF9FEF2CC094
:1011700022FF16C0468157812481358142175307CB
:1011800044F4A081B1819D012F5F3F4F31832083C3
:101190008C93268137812F5F3F4F3783268314C07E
:1011A0008B01EC01FB010084F185E02D0995892B71
:1011B000E1F6D80116968D919C9117970196179696
:1011C0009C938E931697CE01DF91CF911F910F9133
:1011D0000895A0E0B0E0EEEEF8E08DCFAE014B5FF9
:1011E0005F4FFA0161917191AF018091C4019091BB
:1011F000C50138DEE2E09BCFA0E0B0E0E1E0F9E03D
:1012000078CFAE01495F5F4FDA016D917D91AD01FD
:1012100002EC11E0F80182819381DC0113962C919C
:101220001397286013962C931DDED8011296ED912A
:10123000FC9113972381277F2383E4E076CFFA0183
:10124000AA27283061F1203191F1E8946F936E7FE5
:101250006E5F7F4F8F4F9F4FAF4FB1E040D0B4E0F4
:101260003ED0670F781F891F9A1FA11D680F791F35
:101270008A1F911DA11D6A0F711D811D911DA11D48
:1012800022D009F468943F91062E000C3019000C0E
:10129000000C3019305D3193CEF6CF010895462F02
:1012A0004770405D4193B3E00FD0C9F7F6CF462FAA
:1012B0004F70405D4A3318F0495D31FD4052419313
:1012C00002D0A9F7EACFB4E0A695979587957795D0
:1012D0006795BA95C9F700976105710508959B0157
:1012E000AC010A2E06945795479537952795BA95E0
:1012F000C9F7620F731F841F951FA01D0895F894EE
:02130000FFCF1D
:10130200FF5A010500000001000000000000D503A3
:1013120000000000000200000000C40300000601FB
:101322006C6564206164635B25645D3A0925303530
:10133200753A2009253035752C0925303575092572
:10134200303575207469636B733A09253036750937
:0E13520066696C743A253036642020200D0048
:00000001FF
