:10000000C5C0DFC5DEC0DDC0DCC0DBC07AC2D9C080
:10001000D8C0D7C0D6C0D5C0D4C0D3C0D2C0D1C03C
:10002000D0C0CFC0CEC0040309041603620069002B
:1000300072006B006C00650072002E00730065009A
:1000400024034200690072006B006C0065007200BE
:10005000200054006F007500630068002B004B0007
:10006000650079001201100100000008424254E4CA
:10007000070001020001090222000101008032098B
:10008000040000010300000009210101000122A178
:10009000000705810308006405010902A1010901A7
:1000A000A100050919012903150025019503750112
:1000B000850181029501750581030501093009312A
:1000C0001581257F750895028106C0C00906A1012A
:1000D00085020507096609290928094A0976097E62
:1000E000094F0950095109520980098109570956D8
:1000F000093A093B093C093D093E093F09400941CC
:100100000942094395017508150125188140C00B66
:1001100000000100A1000501751095010900857C12
:10012000B1020900857DB102750895410900857EFF
:10013000B1000900857FB100C0427574746F6E20F4
:1001400070726573736564210A00426F6F74656431
:10015000210A0055534252515F4849445F53455468
:100160005F49444C452069646C653D25640A00552F
:10017000534252515F4849445F4745545F49444C9C
:10018000452069646C653D25640A000011241FBE8A
:10019000CFE5D2E0DEBFCDBF10E0A0E6B0E0E8ECF6
:1001A000F4E102C005900D92AE37B107D9F711E026
:1001B000AEE7B0E001C01D92A637B107E1F70AD261
:1001C00081C91ECF85B7826085BF8BB780648BBF26
:1001D0008BE4809346018AE58093450108951F933F
:1001E000DC01162F809145018E31E1F080914501AF
:1001F00084FF07C08091460198E8892780934601D3
:1002000003C08AE580934501912FE7E4F1E08D91E9
:1002100081939150E1F787E491E0612FBBD41C5F9B
:10022000109345011F9108951F93CF93DF93609121
:100230005601635067FDE9C080915301CCE0D0E0E6
:10024000C81BD109C65ADE4FC398809152018D3226
:1002500009F0C9C0683009F0D6C083EC80933A0138
:100260008AE58093600010927F009881892F8076C4
:1002700039F0CE0143D4282F8F3F09F4A3C0A9C081
:100280002A813C81109243018981882381F49F71E6
:10029000923049F4313839F4809145018E3119F4A6
:1002A00081E0809343011092440122E084C08130B8
:1002B00011F0833089F4222309F07CC0313809F031
:1002C00079C0813011F08EE101C08AE5809345014B
:1002D0008BE4809346016EC0853019F4209357015A
:1002E00069C0863009F04FC08B81813041F484E6CB
:1002F00090E0909355018093540122E140C08230F8
:1003000041F486E790E0909355018093540122E2F6
:1003100036C08330F9F48A81882341F486E290E084
:10032000909355018093540124E029C0813041F419
:100330008AE290E0909355018093540126E11FC01A
:100340008230E1F480E490E0909355018093540171
:1003500024E215C0813241F488E890E09093550181
:100360008093540129E00BC0823241F488E990E087
:10037000909355018093540121EA01C020E080E46C
:1003800080937F0026C0883021F421E089E591E048
:1003900014C0893019F42093590109C08A3011F42E
:1003A00021E009C08B3031F48BE4809346018AE56B
:1003B0008093450120E083E491E090935501809380
:1003C000540107C0888187FD2E8180E880937F00DB
:1003D00006C08F81882319F48E81821708F0822F3E
:1003E0008093610010C080917F0087FF0CC0CE0118
:1003F0004AD38F3F21F48EE18093600004C08823AC
:1004000011F010926100109256018091600084FFFB
:1004100058C0809161008F3F09F453C0182F893074
:1004200008F018E0811B8093610080913A0198E800
:10043000892780933A01112391F180917F0087FFF2
:1004400008C08BE391E0612FEFD2182F893098F527
:1004500026C0209154013091550186FF0DC0ABE3B9
:10046000B1E080E090E0F901E80FF91FE491ED932D
:1004700001961817C1F708C0912FD901EBE3F1E0FD
:100480008D9181939150E1F71150812F90E01F5F82
:100490000196820F931F90935501809354018BE333
:1004A00091E0612F77D3612F6C5F6C3041F08FEF5B
:1004B0008093610004C08FEF809361006EE16093D0
:1004C000600094E186B3847449F49150D9F7109296
:1004D0005701109251018AE58093450110E099235C
:1004E00009F411E080917E00811739F0112319F48D
:1004F000F8943FD1789410937E00DF91CF911F91B3
:1005000008951F920F920FB60F9211240F900FBEF5
:100510000F901F901895CF93DF93EC018881807620
:10052000803209F053C089818130B9F48A818130E9
:1005300021F0823009F04AC008C080E890E0909332
:1005400055018093540184E042C084E890E0909388
:1005500055018093540182E03AC08230D1F486E89C
:1005600090E0909355018093540100D000D0EDB7F6
:10057000FEB731968FE691E0ADB7BEB712969C9369
:100580008E93119780918600828313821DD581E01E
:1005900018C08A30D9F400D000D0EDB7FEB731963C
:1005A00083E591E0ADB7BEB712969C938E931197F9
:1005B000809186008283138207D58B818093860089
:1005C00080E00F900F900F900F9001C080E0DF91BE
:1005D000CF910895EF92FF920F931F93CF93DF93E4
:1005E000D398DB9ABB9AC398C398B99AC198C1981B
:1005F00015BA84E083BFD498DC9AD09AD198D99860
:1006000082E690E0909373018093720160E770E05E
:10061000709371016093700188E790E0A9D4809194
:1006200070019091710162D400D08AE491E0EDB73D
:10063000FEB792838183C8D4BC98C4982FE088E128
:1006400090E00FB6F894A89581BD0FBE21BD0F9024
:100650000F90B8DD7894BC9AC49AD89A83E986B989
:1006600013B8C39AC19880E060ED77E02AD181E0A9
:1006700060ED77E026D186E06CE271E022D184E083
:1006800064EF71E01ED183E068E873E11AD110E0F5
:10069000C9E3D1E001E092E0E92E88E0F82EA895C8
:1006A00008B601FE06C088B7826088BF88EF93E075
:1006B000AED0BADDCC990DC0C19A10FD08C000D0F3
:1006C000EDB7FEB7D283C1837FD40F900F90116036
:1006D00001C01E7F8091450184FF0CC08091810084
:1006E000181741F0009380001093810080E890E09B
:1006F00064E075DD8091700190917101F7D397FDF1
:1007000005C0609172017091730132D484E0B0D061
:10071000892B31F084E064EF71E0D3D007B9369AC9
:1007200086B1349A88B38E2588BB87B18F738130A8
:1007300021F4109282001092830080E099D0892BDE
:1007400039F080E064EF71E0BCD088B38F2588BBBE
:1007500081E08ED0892B21F081E06AEF70E0B1D08A
:1007600089B390E0FC01E870F07083FD98CF0995A3
:1007700096CFEF92FF920F931F93CF93DF9380E872
:10078000F82E00E0C0E0D0E0102F1F0D11BF06D200
:100790009C0189E0243338070CF0102FF694219641
:1007A000C830D10511F0012FEFCF115011BF1F5FDD
:1007B0007901C12FD0E0219610C0F0D18453994027
:1007C00097FF03C0909581959F4F8E159F0514F458
:1007D00011B77C0181B78F5F81BF81B790E0C817E7
:1007E000D9075CF711BFCDB7DEB7E6E070C380E094
:1007F00090E02FEF3FEFFC01EE0FFF1FE857FF4F98
:1008000031832083019687309105A9F708952091BF
:100810008700820F911D80938700892F99276FEFA2
:100820007FEF40E050E0FA01EE0FFF1FE857FF4F67
:1008300020813181AFEF2F3F3A0799F0821793075C
:1008400070F4281B390B2617370708F4B901FA0191
:10085000EE0FFF1FE857FF4F3183208302C0118244
:1008600010824F5F5F4F47305105E9F6CB01089585
:10087000E82FF0E0EE0FFF1FE857FF4F80819181D6
:10088000892B19F020E030E006C08FEF9FEF9183B5
:10089000808321E030E0C9010895E82FF0E0EE0FF9
:1008A000FF1FE857FF4F8FEF9FEF918380830895DD
:1008B000E82FF0E0EE0FFF1FE857FF4F1182108284
:1008C0000895E82FF0E0EE0FFF1FE857FF4F718308
:1008D00060830895482FFB01A485B585809196001B
:1008E000882379F48FE790E090939A0080939900A1
:1008F0008FE090E0909322018093210181E080932A
:1009000096008D919C9111978E5B9A4B69F08EEBBE
:100910009AEB11969C938E9315961C921E921497A7
:1009200017961C921E92169716968D919C9117976A
:10093000FD01E80FF91F40879C012F5F3F4F129682
:100940008D919C9113972823392317963C932E93CE
:10095000169714968D919C9115972817390731F4A5
:100960002F5F3F4F15963C932E93149714968D91BD
:100970009C91159712962D913C9113978223932366
:1009800015969C938E931497842F90E00895FC0104
:10099000A485B58580919600882379F48FE790E04F
:1009A00090939A00809399008FE090E090932201B9
:1009B0008093210181E0809396008D919C91119705
:1009C0008E5B9A4B69F08EEB9AEB11969C938E930B
:1009D00015961C921E92149717961C921E921697AB
:1009E00014962D913C91159716968D919C91179781
:1009F0002817390719F44FEF5FEF12C0FD01E20F1E
:100A0000F31F8085482F50E02F5F3F4F12968D9146
:100A10009C9113972823392315963C932E93149772
:100A2000CA01089580E008959C01809138018E37B5
:100A300019F540913701D901942F20E017C0963065
:100A400030F4E92FF0E0E756FF4F80810BC0E92F2B
:100A5000E65080919B00E80FF0E0EF77F070E956E8
:100A6000FF4F80858C932F5F9F5F1196261738F379
:100A7000460F4093370103C0C901D4DF682F862F8A
:100A8000089580E00895A0E0B0E0E8E4F5E001C258
:100A9000FC01F62E809138018C3739F481819281E6
:100AA00090939C0080939B0024C08F37F9F48F01B2
:100AB000C0E0D0E0C62EDD24EE24E39413C0809184
:100AC0003701F8019081882329F490933901E0924D
:100AD000370105C0892F90E060E770E049D2219688
:100AE0000F5F1F4FCC15DD0554F303C0CF01C9DFE5
:100AF000F82E8F2DCDB7DEB7E8E0E7C1382FE82F0D
:100B0000F92F228120933801808180768032D1F4C0
:100B10008181813069F42D3719F02E3799F40EC098
:100B200085E291E0909355018093540182E008950D
:100B3000893041F42C3721F02F3721F410923701FE
:100B40008FEF0895832FE7DC0895A82FB92F8FEF3B
:100B50009FEF1BC02D918227282F22952827722FC7
:100B6000269526952727239526952170782F892F5E
:100B700082272195207C922F2227769527959727EB
:100B800082277695279597278227615018F78095B9
:100B900090950895DADF8D939D930895A6E08827B8
:100BA0009927AA9569F00197E1F3B299FCCFB29B1E
:100BB000FECF81E09927A6B3019611F0A474D9F76E
:100BC0000895CF93CFB7CF93C395B29BE9F7B29B6C
:100BD0000BC0B29B09C0B29B07C0B29B05C0B29BC1
:100BE00003C0B29B01C0D5C00F92DF93C0915301E7
:100BF000DD27C65ADE4F012EB29B03C0DF910F9056
:100C0000E6CF2F930F931F934F932FEF4F6F06B3A2
:100C100002FB20F95F933F9350E03BE065C016B3C1
:100C20000126502952FDC89556B3012702FB25F92C
:100C30002F7306B3B1F05027102712FB26F906B226
:100C40002230F0F000C016B3012702FB27F901267D
:100C5000502906B22430E8F54F77206816B300001B
:100C6000F6CF50274F7D206206B2102F000000C043
:100C700006B300265029102712FB26F906B2E2CF50
:100C80004F7B06B3206400C0DACF012650291474CC
:100C900006B269F14E7F2160012F16B328C00026ED
:100CA00050294D7F06B22260102F29C001265029FD
:100CB0004B7F06B22460012F2DC016B301265029A8
:100CC000477F2860000006B22EC04F7E06B3206129
:100CD00030C0422706B3499300265029102706B298
:100CE0004FEF12FB20F9297F16B379F2147459F1F2
:100CF0000126502906B2012702FB21F9237F06B302
:100D000071F2002650293150D0F006B2102712FBA4
:100D100022F9277E16B351F201265029012702FB42
:100D200006B223F92F7C49F2000006B3102712FB0C
:100D300024F90026502906B22F7939F270CF10E439
:100D40001ABF002719C03B503195C31BD04010E497
:100D50001ABF0881033C09F10B34F9F020915101CD
:100D60001981110F1213EDCF4A81441F093651F139
:100D70000D3211F0013E29F7009358013F915F9128
:100D80004F911F910F912F91DF910F90CAB7C6FD20
:100D90001BCFCF91CFBFCF9118952091580122231F
:100DA00069F310915601112379F534307AF13093BB
:100DB000560120935201109153013BE0311B3093B7
:100DC000530124C0009156010130F4F40AE54F703C
:100DD00049F43091600034FD1AC000936000CAE30A
:100DE000D1E019C03091450134FD11C00093450197
:100DF000C6E4D1E010C0052710E000C021C00527DF
:100E000010E0C89508BB14C03AE501C032ED032ECE
:100E1000C0E0D0E032E017B31464C29A08B317BB45
:100E200054E420E84FEF20FF052708BB27951795CE
:100E30001C3F28F700004552B0F720FF05272795F3
:100E400008BB17951C3FB8F629913A9561F70B7BC3
:100E500010915701110F08BBC250D04011F01093F0
:100E6000510110E41ABF046017B31B7B402F4B7B6A
:100E700054E05A95F1F708BB17BB48BB7FCF2F92C0
:100E80003F924F925F926F927F928F929F92AF921A
:100E9000BF92CF92DF92EF92FF920F931F93CF9367
:100EA000DF93CDB7DEB7CA1BDB0B0FB6F894DEBFFE
:100EB0000FBECDBF09942A88398848885F846E8424
:100EC0007D848C849B84AA84B984C884DF80EE806E
:100ED000FD800C811B81AA81B981CE0FD11D0FB677
:100EE000F894DEBF0FBECDBFED010895CF93DF9321
:100EF000EC014B8140FF1AC046FF0AC04F7B4B8379
:100F00008E819F8101969F838E838A81282F2BC09B
:100F100042FF13C0E881F9818081282F332727FD04
:100F200030952115310529F440624B832FEF3FEFB7
:100F30001BC03196F983E88311C0EA85FB85CE0199
:100F400009959C0197FF0AC09B812F5F3F4F11F0CD
:100F500080E201C080E1892B8B83E8CF8E819F8165
:100F600001969F838E8330E0C901DF91CF91089570
:100F70000F931F93CF93DF938C01EB018B8181FF44
:100F80001BC082FF0DC02E813F818C819D8128175F
:100F9000390764F4E881F9810193F983E88306C095
:100FA000E885F985802F0995892B31F48E819F8101
:100FB00001969F838E8302C00FEF1FEFC801DF9160
:100FC000CF911F910F910895A0E0B0E0E9EEF7E016
:100FD00066CFFE01359661917191A0917201B09139
:100FE000730113968C911397886013968C9380915C
:100FF000720190917301AF010AD0E0917201F091FA
:1010000073012381277F23832096E2E064CFABE046
:10101000B0E0ECE0F8E033CF4C012B015A01FC01C9
:1010200017821682838181FD03C06FEF7FEFBEC1FF
:101030001E010894211C311C9FE3692EF4013381A9
:10104000F20133FD859133FF81912F01882309F44B
:10105000AAC1853239F433FD859133FF81912F0187
:10106000853221F490E0B40183DFE8CF982FFF248C
:10107000EE247724FFE1FF15D0F09B3269F09C321B
:1010800028F4903259F0933291F40EC09D3249F019
:10109000903369F441E02AC052E0F52A84E0F82A4E
:1010A0002EC098E0F92A2BC0E0E1FE2A28C0F7FC08
:1010B0002FC0292F20532A30A0F4F6FE08C0872D18
:1010C00090E06AE070E0ECD1782E720E18C08E2DA0
:1010D00090E06AE070E0E4D1E82EE20EF0E2FF2A50
:1010E0000EC09E3229F4F6FC5EC140E4F42A07C02B
:1010F0009C3619F450E8F52A02C0983649F4F201FA
:1011000033FD959133FF91912F01992309F0B2CFCF
:10111000892F8554833018F08052833030F444E0B6
:1011200050E0A40EB51E69820FC0933631F093379C
:1011300079F0933509F052C01FC0F5018081898391
:1011400042E050E0A40EB51E610101E010E011C0C4
:10115000F501C080D180F6FC03C06FEF7FEF02C0C5
:10116000672D70E042E050E0A40EB51EC6012DD1FF
:101170008C015FE7F52213C0F501C080D180F6FC39
:1011800003C06FEF7FEF02C0672D70E042E050E0D8
:10119000A40EB51EC6010ED18C0150E8F52AF3FE4F
:1011A00006C018C080E290E0B401E2DEEA948E2D21
:1011B00090E008171907B0F30DC0F601F7FC859110
:1011C000F7FE81916F0190E0B401D2DEE110EA9464
:1011D000015010400115110581F7E2C0943611F05D
:1011E000993661F5F7FE08C0F50120813181428111
:1011F000538184E090E00AC0F501808191819C01D7
:10120000442737FD4095542F82E090E0A80EB91E88
:101210009FE6F92257FF09C05095409530952195DA
:101220003F4F4F4F5F4FE0E8FE2ACA01B901A101CD
:101230002AE030E0D5D0D82ED2183FC0953729F417
:101240001F2D1F7E2AE030E01DC01F2D197F9F3605
:1012500061F0903720F4983509F0A5C00FC09037A1
:1012600039F0983709F09FC004C028E030E00AC088
:10127000106114FD146020E130E004C014FD16601C
:1012800020E132E017FF08C0F501608171818281A1
:10129000938144E050E008C0F50180819181BC0158
:1012A00080E090E042E050E0A40EB51EA10198D08D
:1012B000D82ED2188FE7F82EF122F6FE0BC05EEF83
:1012C000F522D71438F4F4FE07C0F2FC05C08FEE07
:1012D000F82202C01D2D01C0172DF4FE0DC0FE0125
:1012E000ED0DF11D8081803319F499EEF92208C0CB
:1012F0001F5FF2FE05C003C08F2D867809F01F5FC7
:101300000F2DF3FC13C0F0FE0EC01E1510F07D2C47
:101310000AC07D2C7E0C711A1E2D05C080E290E063
:10132000B40126DE1F5F1E15C8F304C01E1510F49D
:10133000E11A01C0EE2404FF0EC080E390E0B40186
:1013400017DE02FF1BC001FD03C088E790E00EC05E
:1013500088E590E00BC0802F867881F001FF02C005
:101360008BE201C080E2F7FC8DE290E0B40100DE88
:1013700005C080E390E0B401FBDD7A94D714C8F394
:10138000DA94F101ED0DF11D808190E0B401F0DD02
:10139000DD20B1F705C080E290E0B401E9DDEA9418
:1013A000EE20C9F74BCEF40166817781CB012B96F5
:1013B000E2E181CDFC010590615070400110D8F749
:1013C000809590958E0F9F1F0895FC01615070408D
:1013D00001900110D8F7809590958E0F9F1F08956A
:1013E000FA01AA27283061F1203191F1E8946F9336
:1013F0006E7F6E5F7F4F8F4F9F4FAF4FB1E040D0FA
:10140000B4E03ED0670F781F891F9A1FA11D680F97
:10141000791F8A1F911DA11D6A0F711D811D911DCC
:10142000A11D22D009F468943F91062E000C3019BA
:10143000000C000C3019305D3193CEF6CF010895C9
:10144000462F4770405D4193B3E00FD0C9F7F6CF08
:10145000462F4F70405D4A3318F0495D31FD4052D0
:10146000419302D0A9F7EACFB4E0A6959795879566
:1014700077956795BA95C9F7009761057105089545
:101480009B01AC010A2E06945795479537952795F1
:10149000BA95C9F7620F731F841F951FA01D089589
:1014A0005527002480FF02C0060E571F660F771FC6
:1014B0006115710521F096958795009799F7952FFD
:0814C000802D0895F894FFCF80
:1014C8005AFF00000002000000006A0400009700B4
:0E14D80000000001000000006A04C7041F01AC
:00000001FF
