:1000000066C0AAC37FC07EC07DC07CC0F0C17AC07C
:1000100079C078C077C076C075C074C073C072C034
:1000200071C070C06FC00403090416036200690048
:1000300072006B006C00650072002E00730065009A
:100040001C034200690072006B006C0065007200C6
:1000500020004D006F007500730065001201100153
:1000600000000008424252E40300010200010902BC
:100070002200010100803209040000010300000099
:1000800009210101000122340007058103080064F1
:1000900005010902A1010901A100050919012903AE
:1000A00015002501950375018102950175058103F0
:1000B00005010930093109381581257F7508950337
:1000C0008106C0C0426F6F746564210A000011246C
:1000D0001FBECFE5D2E0DEBFCDBF10E0A0E6B0E0AE
:1000E000EAEDFFE002C005900D92A037B107D9F705
:1000F00011E0A0E7B0E001C01D92AB34B107E1F719
:10010000B8D169C77DCF85B7826085BF8BB7806462
:100110008BBF8BE480931B018AE580931A010895BD
:100120001F93DC01162F80911A018E31E1F080912E
:100130001A0184FF07C080911B0198E889278093EA
:100140001B0103C08AE580931A01912FECE1F1E0D5
:100150008D9181939150E1F78CE191E0612FE5D28F
:100160001C5F10931A011F9108951F93CF93DF9383
:1001700090912B01935097FDCDC020912801C398F9
:10018000809127018D3209F0C3C0983009F0C0C0BA
:10019000CCE0D0E0C21BD109C15DDE4F83EC80937F
:1001A0000F018AE580936000109271009881892F79
:1001B000807621F0CE013AD1282FA1C02A813C813E
:1001C000109218018981882381F49F71923049F43B
:1001D000313839F480911A018E3119F481E080931D
:1001E00018011092190122E084C0813011F083308F
:1001F00089F4222309F07CC0313809F079C08130BC
:1002000011F08EE101C08AE580931A018BE480939E
:100210001B016EC0853019F420932C0169C0863013
:1002200009F04FC08B81813041F48CE590E09093D0
:100230002A018093290122E140C0823041F48EE6F8
:1002400090E090932A018093290122E236C0833006
:10025000F9F48A81882341F486E290E090932A01A0
:100260008093290124E029C0813041F48AE290E0A2
:1002700090932A018093290126E11FC08230E1F486
:1002800080E490E090932A01809329012CE115C02D
:10029000813241F480E890E090932A018093290113
:1002A00029E00BC0823241F480E990E090932A016A
:1002B0008093290124E301C020E080E48093710051
:1002C0001EC0883021F421E08EE291E014C0893014
:1002D00019F420932E0109C08A3011F421E009C0DD
:1002E0008B3031F48BE480931B018AE580931A01F3
:1002F00020E088E191E090932A01809329018F8189
:10030000882321F48E81821708F4282F209361001E
:1003100010922B018091600084FF49C080916100A0
:100320008F3F09F444C0182F893008F018E0811B72
:100330008093610080910F0198E8892780930F01D5
:10034000112341F12091290130912A0180917100FE
:1003500086FF0DC0A0E1B1E080E090E0F901E80F78
:10036000F91FE491ED9301961817C1F708C0912F7A
:10037000D901E0E1F1E08D9181939150E1F71150C5
:10038000812F90E01F5F0196820F931F90932A01A7
:100390008093290180E191E0612FC7D1612F6C5FCB
:1003A0006C3019F08FEF809361006093600094E1EE
:1003B00086B3847449F49150D9F710922C011092AD
:1003C00026018AE580931A0110E0992309F411E0CF
:1003D00080917000811739F0112319F4F894CFD06F
:1003E000789410937000DF91CF911F9108951F9220
:1003F0000F920FB60F9211240F900FBE0F901F9007
:100400001895982FFB01A485B5858A3009F49DE0E5
:1004100016968C911697FD01E80FF11D97838F5F5B
:100420008F7716968C9380E090E00895FC01808190
:1004300080768032E1F48181813041F482E790E07E
:1004400090932A018093290184E00895823041F439
:1004500086E790E090932A018093290181E0089536
:100460008A3029F483818093760080E0089580E0CB
:100470000895FF920F931F93BB9AC398C398B99A9C
:10048000C198C19815BA84E083BFD498DC9A82E6FB
:1004900090E09093480180934701BC98C4982FE066
:1004A00088E190E00FB6F894A89581BD0FBE21BDFC
:1004B0002ADE7894BC9AC49AC39A84E060ED77E00F
:1004C00006D185E060ED77E002D187E06CE271E073
:1004D000FED080E0E8D081E0E6D082E0E4D083E0A6
:1004E000E2D000D084EC90E0EDB7FEB79283818338
:1004F000ACD20F900F9088E0F82E02E0A89508B6D5
:1005000001FE06C088B7826088BF88EF93E085D07F
:100510002CDE80911A0184FF04C082E790E064E041
:10052000FFDD84E0ABD0892B39F084E064EF71E02B
:10053000CED088B38F2588BB85E0A0D0892B39F039
:1005400085E06AEF70E0C3D088B3802788BBCC9980
:1005500005C0C19A80917200816003C080917200D1
:100560008E7F8093720010E0812F88D0892B11F04C
:10057000812F99D01F5F143009F4C0CFF5CFEF92CF
:10058000FF920F931F93CF93DF9380E8F82E00E044
:10059000C0E0D0E0102F1F0D11BFCBD09C0189E02F
:1005A000243338070CF0102FF6942196C830D1056B
:1005B00011F0012FEFCF115011BF1F5F7901C12F33
:1005C000D0E0219610C0B5D08453994097FF03C066
:1005D000909581959F4F8E159F0514F411B77C015E
:1005E00081B78F5F81BF81B790E0C817D9075CF7EB
:1005F00011BFCDB7DEB7E6E019C280E090E02FEF83
:100600003FEFFC01EE0FFF1FE150FF4F31832083CE
:10061000019688309105A9F708952091FE00820F78
:10062000911D8093FE00892F99276FEF7FEF40E0A7
:1006300050E0FA01EE0FFF1FE150FF4F20813181A2
:10064000AFEF2F3F3A0799F08217930770F4281BFA
:10065000390B2617370708F4B901FA01EE0FFF1F0F
:10066000E150FF4F3183208302C0118210824F5F1F
:100670005F4F48305105E9F6CB010895E82FF0E0CF
:10068000EE0FFF1FE150FF4F80819181892B19F000
:1006900020E030E006C08FEF9FEF9183808321E060
:1006A00030E0C9010895E82FF0E0EE0FFF1FE150A0
:1006B000FF4F8FEF9FEF918380830895E82FF0E045
:1006C000EE0FFF1FE150FF4F118210820895E82FB7
:1006D000F0E0EE0FFF1FE150FF4F7183608308953C
:1006E000A82FB92F8FEF9FEF1BC02D918227282FA6
:1006F00022952827722F269526952727239526951C
:100700002170782F892F82272195207C922F2227F4
:10071000769527959727822776952795972782277D
:10072000615018F7809590950895DADF8D939D9329
:100730000895A6E088279927AA9569F00197E1F323
:10074000B299FCCFB29BFECF81E09927A6B3019668
:1007500011F0A474D9F70895CF93CFB7CF93C39571
:10076000B29BE9F7B29B0BC0B29B09C0B29B07C01A
:10077000B29B05C0B29B03C0B29B01C0D5C00F9213
:10078000DF93C0912801DD27C15DDE4F012EB29BB2
:1007900003C0DF910F90E6CF2F930F931F934F93DA
:1007A0002FEF4F6F06B302FB20F95F933F9350E0AA
:1007B0003BE065C016B30126502952FDC89556B3DB
:1007C000012702FB25F92F7306B3B1F0502710273C
:1007D00012FB26F906B22230F0F000C016B3012752
:1007E00002FB27F90126502906B22430E8F54F779D
:1007F000206816B30000F6CF50274F7D206206B266
:10080000102F000000C006B300265029102712FB4D
:1008100026F906B2E2CF4F7B06B3206400C0DACFE0
:1008200001265029147406B269F14E7F2160012F10
:1008300016B328C0002650294D7F06B22260102F23
:1008400029C0012650294B7F06B22460012F2DC0FC
:1008500016B301265029477F2860000006B22EC03B
:100860004F7E06B3206130C0422706B3499300266D
:100870005029102706B24FEF12FB20F9297F16B33B
:1008800079F2147459F10126502906B2012702FBAE
:1008900021F9237F06B371F2002650293150D0F0A0
:1008A00006B2102712FB22F9277E16B351F2012659
:1008B0005029012702FB06B223F92F7C49F20000E0
:1008C00006B3102712FB24F90026502906B22F790F
:1008D00039F270CF10E41ABF002719C03B50319590
:1008E000C31BD04010E41ABF0881033C09F10B344C
:1008F000F9F0209126011981110F1213EDCF4A81D1
:10090000441F093651F10D3211F0013E29F70093D1
:100910002D013F915F914F911F910F912F91DF9189
:100920000F90CAB7C6FD1BCFCF91CFBFCF911895FF
:1009300020912D01222369F310912B01112379F5C8
:1009400034307AF130932B01209327011091280144
:100950003BE0311B3093280124C000912B01013072
:10096000F4F40AE54F7049F43091600034FD1AC088
:1009700000936000CFE0D1E019C030911A0134FD3E
:1009800011C000931A01CBE1D1E010C0052710E09F
:1009900000C021C0052710E0C89508BB14C03AE587
:1009A00001C032ED032EC0E0D0E032E017B3146492
:1009B000C29A08B317BB54E420E84FEF20FF052785
:1009C00008BB279517951C3F28F700004552B0F744
:1009D00020FF0527279508BB17951C3FB8F62991DE
:1009E0003A9561F70B7B10912C01110F08BBC25097
:1009F000D04011F01093260110E41ABF046017B321
:100A00001B7B402F4B7B54E05A95F1F708BB17BB7B
:100A100048BB7FCF2A88398848885F846E847D846C
:100A20008C849B84AA84B984C884DF80EE80FD8096
:100A30000C811B81AA81B981CE0FD11D0FB6F8940C
:100A4000DEBF0FBECDBFED010895A0E0B0E0EAE249
:100A5000F5E0B5C2FE01359661917191A091470113
:100A6000B091480113968C911397886013968C93DC
:100A70008091470190914801AF010AD0E091470170
:100A8000F09148012381277F23832096E2E0D2CF93
:100A9000ABE0B0E0EDE4F5E082C24C012B015A017D
:100AA000FC0117821682838181FD03C06FEF7FEF07
:100AB000BEC11E010894211C311C9FE3692EF40164
:100AC0003381F20133FD859133FF81912F0188231A
:100AD00009F4AAC1853239F433FD859133FF819140
:100AE0002F01853221F490E0B401BBD1E8CF982FDB
:100AF000FF24EE247724FFE1FF15D0F09B3269F04C
:100B00009C3228F4903259F0933291F40EC09D3209
:100B100049F0903369F441E02AC052E0F52A84E0BC
:100B2000F82A2EC098E0F92A2BC0E0E1FE2A28C05E
:100B3000F7FC2FC0292F20532A30A0F4F6FE08C05E
:100B4000872D90E06AE070E018D2782E720E18C0FF
:100B50008E2D90E06AE070E010D2E82EE20EF0E216
:100B6000FF2A0EC09E3229F4F6FC5EC140E4F42A4E
:100B700007C09C3619F450E8F52A02C0983649F4AB
:100B8000F20133FD959133FF91912F01992309F0E3
:100B9000B2CF892F8554833018F08052833030F4DF
:100BA00044E050E0A40EB51E69820FC0933631F0C8
:100BB000933779F0933509F052C01FC0F501808159
:100BC000898342E050E0A40EB51E610101E010E00F
:100BD00011C0F501C080D180F6FC03C06FEF7FEF3C
:100BE00002C0672D70E042E050E0A40EB51EC601C1
:100BF0002DD18C015FE7F52213C0F501C080D180B3
:100C0000F6FC03C06FEF7FEF02C0672D70E042E09B
:100C100050E0A40EB51EC6010ED18C0150E8F52A95
:100C2000F3FE06C018C080E290E0B4011AD1EA9445
:100C30008E2D90E008171907B0F30DC0F601F7FCF0
:100C40008591F7FE81916F0190E0B4010AD1E11026
:100C5000EA94015010400115110581F7E2C0943665
:100C600011F0993661F5F7FE08C0F5012081318158
:100C70004281538184E090E00AC0F5018081918136
:100C80009C01442737FD4095542F82E090E0A80E48
:100C9000B91E9FE6F92257FF09C05095409530953F
:100CA00021953F4F4F4F5F4FE0E8FE2ACA01B9013F
:100CB000A1012AE030E001D1D82ED2183FC09537EB
:100CC00029F41F2D1F7E2AE030E01DC01F2D197F43
:100CD0009F3661F0903720F4983509F0A5C00FC019
:100CE000903739F0983709F09FC004C028E030E011
:100CF0000AC0106114FD146020E130E004C014FD4E
:100D0000166020E132E017FF08C0F50160817181B3
:100D10008281938144E050E008C0F5018081918197
:100D2000BC0180E090E042E050E0A40EB51EA101BD
:100D3000C4D0D82ED2188FE7F82EF122F6FE0BC0C1
:100D40005EEFF522D71438F4F4FE07C0F2FC05C0BC
:100D50008FEEF82202C01D2D01C0172DF4FE0DC02C
:100D6000FE01ED0DF11D8081803319F499EEF92219
:100D700008C01F5FF2FE05C003C08F2D867809F002
:100D80001F5F0F2DF3FC13C0F0FE0EC01E1510F0F8
:100D90007D2C0AC07D2C7E0C711A1E2D05C080E2B0
:100DA00090E0B4015ED01F5F1E15C8F304C01E158D
:100DB00010F4E11A01C0EE2404FF0EC080E390E0BD
:100DC000B4014FD002FF1BC001FD03C088E790E0D3
:100DD0000EC088E590E00BC0802F867881F001FF7F
:100DE00002C08BE201C080E2F7FC8DE290E0B4012A
:100DF00038D005C080E390E0B40133D07A94D714A2
:100E0000C8F3DA94F101ED0DF11D808190E0B40199
:100E100028D0DD20B1F705C080E290E0B40121D0F8
:100E2000EA94EE20C9F74BCEF40166817781CB01BD
:100E30002B96E2E1EFCDFC0105906150704001106E
:100E4000D8F7809590958E0F9F1F0895FC016150F3
:100E5000704001900110D8F7809590958E0F9F1FDC
:100E600008950F931F93CF93DF938C01EB018B8138
:100E700081FF1BC082FF0DC02E813F818C819D812F
:100E80002817390764F4E881F9810193F983E8832D
:100E900006C0E885F985802F0995892B31F48E816C
:100EA0009F8101969F838E8302C00FEF1FEFC801C1
:100EB000DF91CF911F910F910895FA01AA27283051
:100EC00061F1203191F1E8946F936E7F6E5F7F4FF7
:100ED0008F4F9F4FAF4FB1E040D0B4E03ED0670F8F
:100EE000781F891F9A1FA11D680F791F8A1F911DE6
:100EF000A11D6A0F711D811D911DA11D22D009F434
:100F000068943F91062E000C3019000C000C30192B
:100F1000305D3193CEF6CF010895462F4770405D86
:100F20004193B3E00FD0C9F7F6CF462F4F70405D25
:100F30004A3318F0495D31FD4052419302D0A9F780
:100F4000EACFB4E0A6959795879577956795BA957A
:100F5000C9F700976105710508959B01AC010A2E40
:100F600006945795479537952795BA95C9F7620F17
:100F7000731F841F951FA01D08955527002480FF0F
:100F800002C0060E571F660F771F6115710521F00D
:100F900096958795009799F7952F802D08952F9214
:100FA0003F924F925F926F927F928F929F92AF92F9
:100FB000BF92CF92DF92EF92FF920F931F93CF9346
:100FC000DF93CDB7DEB7CA1BDB0B0FB6F894DEBFDD
:0A0FD0000FBECDBF0994F894FFCFC7
:100FDA005AFF000000020000000001020000770032
:00000001FF
