:1000000076C0D7C38FC08EC08DC08CC000C28AC0DE
:1000100089C088C087C086C085C084C083C082C0B4
:1000200081C080C07FC00403090416036200690018
:1000300072006B006C00650072002E00730065009A
:100040001C034200690072006B006C0065007200C6
:10005000200054006F007500630068001201100159
:1000600000000008424253E40500010200010902B9
:100070002200010100803209040000010300000099
:1000800009210101000122550007058103080064D0
:1000900005010902A1010901A100050919012903AE
:1000A00015002501950375018102950175058103F0
:1000B0000501093009310900150026FF0335004705
:1000C000FFFF0000751095038102C0A10105091909
:1000D0000129031500250195037501B102950175EC
:1000E00005B103C0C0426F6F746564210A0011241A
:1000F0001FBECFE5D2E0DEBFCDBF10E0A0E6B0E08E
:10010000E4E3F0E102C005900D92A037B107D9F702
:1001100011E0A0E7B0E001C01D92A834B107E1F7FB
:10012000B8D186C76DCF85B7826085BF8BB7806435
:100130008BBF8BE4809318018AE5809317010895A3
:100140001F93DC01162F809117018E31E1F0809111
:10015000170184FF07C08091180198E889278093D0
:10016000180103C08AE580931701912FE9E1F1E0BE
:100170008D9181939150E1F789E191E0612F02D354
:100180001C5F109317011F9108951F93CF93DF9366
:1001900090912801935097FDCDC020912501C398DF
:1001A000809124018D3209F0C3C0983009F0C0C09D
:1001B000CCE0D0E0C21BD109C45DDE4F83EC80935C
:1001C0000C018AE580936000109271009881892F5C
:1001D000807621F0CE013AD1282FA1C02A813C811E
:1001E000109215018981882381F49F71923049F41E
:1001F000313839F4809117018E3119F481E0809300
:1002000015011092160122E084C0813011F0833074
:1002100089F4222309F07CC0313809F079C081309B
:1002200011F08EE101C08AE5809317018BE4809381
:1002300018016EC0853019F42093290169C08630F9
:1002400009F04FC08B81813041F48CE590E09093B0
:1002500027018093260122E140C0823041F48EE6DE
:1002600090E0909327018093260122E236C08330EC
:10027000F9F48A81882341F486E290E09093270183
:100280008093260124E029C0813041F48AE290E085
:10029000909327018093260126E11FC08230E1F46C
:1002A00080E490E090932701809326012CE115C013
:1002B000813241F480E890E09093270180932601F9
:1002C00029E00BC0823241F480E990E0909327014D
:1002D0008093260125E501C020E080E48093710031
:1002E0001EC0883021F421E08BE291E014C08930F7
:1002F00019F420932B0109C08A3011F421E009C0C0
:100300008B3031F48BE4809318018AE580931701D8
:1003100020E085E191E090932701809326018F8171
:10032000882321F48E81821708F4282F20936100FE
:10033000109228018091600084FF49C08091610083
:100340008F3F09F444C0182F893008F018E0811B52
:100350008093610080910C0198E8892780930C01BB
:10036000112341F1209126013091270180917100E4
:1003700086FF0DC0ADE0B1E080E090E0F901E80F4C
:10038000F91FE491ED9301961817C1F708C0912F5A
:10039000D901EDE0F1E08D9181939150E1F7115099
:1003A000812F90E01F5F0196820F931F909327018A
:1003B000809326018DE091E0612FE4D1612F6C5F85
:1003C0006C3019F08FEF809361006093600094E1CE
:1003D00086B3847449F49150D9F710922901109290
:1003E00023018AE58093170110E0992309F411E0B5
:1003F00080917000811739F0112319F4F894E5D039
:10040000789410937000DF91CF911F9108951F92FF
:100410000F920FB60F9211240F900FBE0F901F90E6
:100420001895982FFB01A485B5858A3009F49DE0C5
:1004300016968C911697FD01E80FF11D97838F5F3B
:100440008F7716968C9380E090E00895FC01808170
:1004500080768032E1F48181813041F482E790E05E
:10046000909327018093260187E00895823041F41C
:1004700089E790E0909327018093260181E0089519
:100480008A3029F483818093790080E0089580E0A8
:1004900008950F931F93CF93DF93BB9AC398C3988C
:1004A000B99AC198C19815BA84E083BFD498DC9AF0
:1004B000D09AD198D99882E690E0909345018093A4
:1004C0004401BC98C4982FE088E190E00FB6F894FE
:1004D000A89581BD0FBE21BD26DE7894BC9AC49A32
:1004E000D89A83E986B913B8C39AC19880E060EDC1
:1004F00077E01AD181E060ED77E016D184E06CE21C
:1005000071E012D182E064EF71E00ED100D085EE8F
:1005100090E0EDB7FEB792838183C4D20F900F9025
:1005200001E0C0E0D2E018E0A89508B601FE06C0E0
:1005300088B7826088BF88EF93E09CD026DE8091E8
:10054000170184FF04C082E790E067E0F9DD82E0F4
:10055000C2D0892B31F082E064EF71E0E5D007B9B9
:10056000369A86B1349A88B392E0892788BB87B1DE
:100570008F73813051F484B195B19093740080935E
:100580007300D0937600C093750080E0A4D0892BCF
:1005900039F080E064EF71E0C7D088B3812788BB71
:1005A00081E099D0892B21F081E06AEF70E0BCD026
:1005B000CC9905C0C19A80917200816003C080917E
:1005C00072008E7F80937200AFCFEF92FF920F93F5
:1005D0001F93CF93DF9380E8F82E00E0C0E0D0E0D7
:1005E000102F1F0D11BFD2D09C0189E02433380792
:1005F0000CF0102FF6942196C830D10511F0012F80
:10060000EFCF115011BF1F5F7901C12FD0E02196AC
:1006100010C0BCD08453994097FF03C0909581953A
:100620009F4F8E159F0514F411B77C0181B78F5F22
:1006300081BF81B790E0C817D9075CF711BFCDB76C
:10064000DEB7E6E020C28FEF9FEF90930301809327
:100650000201909305018093040190930701809318
:100660000601909309018093080190930B018093F8
:100670000A01089520910101820F911D80930101CB
:10068000892F99276FEF7FEF40E050E0FA01EE0FDE
:10069000FF1FEE5FFE4F20813181AFEF2F3F3A0702
:1006A00099F08217930770F4281B390B2617370728
:1006B00008F4B901FA01EE0FFF1FEE5FFE4F318320
:1006C000208302C0118210824F5F5F4F4530510579
:1006D000E9F6CB010895E82FF0E0EE0FFF1FEE5F83
:1006E000FE4F80819181892B19F020E030E006C017
:1006F0008FEF9FEF9183808321E030E0C90108955F
:10070000E82FF0E0EE0FFF1FEE5FFE4F8FEF9FEF41
:10071000918380830895E82FF0E0EE0FFF1FEE5FD6
:10072000FE4F118210820895E82FF0E0EE0FFF1FB8
:10073000EE5FFE4F718360830895A82FB92F8FEF6E
:100740009FEF1BC02D918227282F22952827722FDB
:10075000269526952727239526952170782F892F72
:1007600082272195207C922F2227769527959727FF
:1007700082277695279597278227615018F78095CD
:1007800090950895DADF8D939D930895A6E08827CC
:100790009927AA9569F00197E1F3B299FCCFB29B32
:1007A000FECF81E09927A6B3019611F0A474D9F782
:1007B0000895CF93CFB7CF93C395B29BE9F7B29B80
:1007C0000BC0B29B09C0B29B07C0B29B05C0B29BD5
:1007D00003C0B29B01C0D5C00F92DF93C091250129
:1007E000DD27C45DDE4F012EB29B03C0DF910F9069
:1007F000E6CF2F930F931F934F932FEF4F6F06B3B7
:1008000002FB20F95F933F9350E03BE065C016B3D5
:100810000126502952FDC89556B3012702FB25F940
:100820002F7306B3B1F05027102712FB26F906B23A
:100830002230F0F000C016B3012702FB27F9012691
:10084000502906B22430E8F54F77206816B300002F
:10085000F6CF50274F7D206206B2102F000000C057
:1008600006B300265029102712FB26F906B2E2CF64
:100870004F7B06B3206400C0DACF012650291474E0
:1008800006B269F14E7F2160012F16B328C0002601
:1008900050294D7F06B22260102F29C00126502911
:1008A0004B7F06B22460012F2DC016B301265029BC
:1008B000477F2860000006B22EC04F7E06B320613D
:1008C00030C0422706B3499300265029102706B2AC
:1008D0004FEF12FB20F9297F16B379F2147459F106
:1008E0000126502906B2012702FB21F9237F06B316
:1008F00071F2002650293150D0F006B2102712FBB9
:1009000022F9277E16B351F201265029012702FB56
:1009100006B223F92F7C49F2000006B3102712FB20
:1009200024F90026502906B22F7939F270CF10E44D
:100930001ABF002719C03B503195C31BD04010E4AB
:100940001ABF0881033C09F10B34F9F0209123010F
:100950001981110F1213EDCF4A81441F093651F14D
:100960000D3211F0013E29F700932A013F915F916A
:100970004F911F910F912F91DF910F90CAB7C6FD34
:100980001BCFCF91CFBFCF91189520912A01222361
:1009900069F310912801112379F534307AF13093FD
:1009A000280120932401109125013BE0311B309355
:1009B000250124C0009128010130F4F40AE54F70AC
:1009C00049F43091600034FD1AC000936000CCE01F
:1009D000D1E019C03091170134FD11C00093170107
:1009E000C8E1D1E010C0052710E000C021C00527F4
:1009F00010E0C89508BB14C03AE501C032ED032EE3
:100A0000C0E0D0E032E017B31464C29A08B317BB59
:100A100054E420E84FEF20FF052708BB27951795E2
:100A20001C3F28F700004552B0F720FF0527279507
:100A300008BB17951C3FB8F629913A9561F70B7BD7
:100A400010912901110F08BBC250D04011F0109332
:100A5000230110E41ABF046017B31B7B402F4B7BAC
:100A600054E05A95F1F708BB17BB48BB7FCF2A88E3
:100A7000398848885F846E847D848C849B84AA84B2
:100A8000B984C884DF80EE80FD800C811B81AA813F
:100A9000B981CE0FD11D0FB6F894DEBF0FBECDBF0A
:100AA000ED010895A0E0B0E0E7E5F5E0B5C2FE0194
:100AB000359661917191A0914401B09145011396D1
:100AC0008C911397886013968C9380914401909138
:100AD0004501AF010AD0E0914401F0914501238125
:100AE000277F23832096E2E0D2CFABE0B0E0EAE7B5
:100AF000F5E082C24C012B015A01FC0117821682DB
:100B0000838181FD03C06FEF7FEFBEC11E0108949A
:100B1000211C311C9FE3692EF4013381F20133FD66
:100B2000859133FF81912F01882309F4AAC1853271
:100B300039F433FD859133FF81912F01853221F402
:100B400090E0B401BBD1E8CF982FFF24EE247724A6
:100B5000FFE1FF15D0F09B3269F09C3228F490320F
:100B600059F0933291F40EC09D3249F0903369F4FC
:100B700041E02AC052E0F52A84E0F82A2EC098E02D
:100B8000F92A2BC0E0E1FE2A28C0F7FC2FC0292F4C
:100B900020532A30A0F4F6FE08C0872D90E06AE0CA
:100BA00070E018D2782E720E18C08E2D90E06AE098
:100BB00070E010D2E82EE20EF0E2FF2A0EC09E3264
:100BC00029F4F6FC5EC140E4F42A07C09C3619F40F
:100BD00050E8F52A02C0983649F4F20133FD9591A8
:100BE00033FF91912F01992309F0B2CF892F8554BA
:100BF000833018F08052833030F444E050E0A40E8B
:100C0000B51E69820FC0933631F0933779F0933572
:100C100009F052C01FC0F5018081898342E050E095
:100C2000A40EB51E610101E010E011C0F501C08005
:100C3000D180F6FC03C06FEF7FEF02C0672D70E03C
:100C400042E050E0A40EB51EC6012DD18C015FE735
:100C5000F52213C0F501C080D180F6FC03C06FEF10
:100C60007FEF02C0672D70E042E050E0A40EB51E99
:100C7000C6010ED18C0150E8F52AF3FE06C018C05B
:100C800080E290E0B4011AD1EA948E2D90E008172A
:100C90001907B0F30DC0F601F7FC8591F7FE8191BD
:100CA0006F0190E0B4010AD1E110EA9401501040C4
:100CB0000115110581F7E2C0943611F0993661F5FE
:100CC000F7FE08C0F501208131814281538184E023
:100CD00090E00AC0F501808191819C01442737FD95
:100CE0004095542F82E090E0A80EB91E9FE6F922AD
:100CF00057FF09C050954095309521953F4F4F4F74
:100D00005F4FE0E8FE2ACA01B901A1012AE030E004
:100D100001D1D82ED2183FC0953729F41F2D1F7E40
:100D20002AE030E01DC01F2D197F9F3661F09037FB
:100D300020F4983509F0A5C00FC0903739F09837E6
:100D400009F09FC004C028E030E00AC0106114FD23
:100D5000146020E130E004C014FD166020E132E0B0
:100D600017FF08C0F501608171818281938144E0A1
:100D700050E008C0F50180819181BC0180E090E0E5
:100D800042E050E0A40EB51EA101C4D0D82ED21866
:100D90008FE7F82EF122F6FE0BC05EEFF522D71496
:100DA00038F4F4FE07C0F2FC05C08FEEF82202C052
:100DB0001D2D01C0172DF4FE0DC0FE01ED0DF11D1E
:100DC0008081803319F499EEF92208C01F5FF2FE8A
:100DD00005C003C08F2D867809F01F5F0F2DF3FC2F
:100DE00013C0F0FE0EC01E1510F07D2C0AC07D2C25
:100DF0007E0C711A1E2D05C080E290E0B4015ED019
:100E00001F5F1E15C8F304C01E1510F4E11A01C0BF
:100E1000EE2404FF0EC080E390E0B4014FD002FF47
:100E20001BC001FD03C088E790E00EC088E590E09C
:100E30000BC0802F867881F001FF02C08BE201C0D9
:100E400080E2F7FC8DE290E0B40138D005C080E389
:100E500090E0B40133D07A94D714C8F3DA94F10156
:100E6000ED0DF11D808190E0B40128D0DD20B1F7B7
:100E700005C080E290E0B40121D0EA94EE20C9F7E9
:100E80004BCEF40166817781CB012B96E2E1EFCD69
:100E9000FC010590615070400110D8F78095909545
:100EA0008E0F9F1F0895FC0161507040019001104A
:100EB000D8F7809590958E0F9F1F08950F931F93DD
:100EC000CF93DF938C01EB018B8181FF1BC082FFED
:100ED0000DC02E813F818C819D812817390764F4D4
:100EE000E881F9810193F983E88306C0E885F985F3
:100EF000802F0995892B31F48E819F8101969F83E4
:100F00008E8302C00FEF1FEFC801DF91CF911F91B9
:100F10000F910895FA01AA27283061F1203191F14B
:100F2000E8946F936E7F6E5F7F4F8F4F9F4FAF4FF1
:100F3000B1E040D0B4E03ED0670F781F891F9A1F00
:100F4000A11D680F791F8A1F911DA11D6A0F711DB8
:100F5000811D911DA11D22D009F468943F91062E98
:100F6000000C3019000C000C3019305D3193CEF6B6
:100F7000CF010895462F4770405D4193B3E00FD0F5
:100F8000C9F7F6CF462F4F70405D4A3318F0495DE0
:100F900031FD4052419302D0A9F7EACFB4E0A695C3
:100FA0009795879577956795BA95C9F700976105E5
:100FB000710508959B01AC010A2E0694579547953B
:100FC00037952795BA95C9F7620F731F841F951F30
:100FD000A01D08955527002480FF02C0060E571F4C
:100FE000660F771F6115710521F09695879500971B
:100FF00099F7952F802D08952F923F924F925F92EF
:101000006F927F928F929F92AF92BF92CF92DF9218
:10101000EF92FF920F931F93CF93DF93CDB7DEB77D
:10102000CA1BDB0B0FB6F894DEBF0FBECDBF099411
:04103000F894FFCF62
:101034005AFF0000000200000000110200007A00C4
:00000001FF
