:10000000BEC02EC677C2D6C0D5C0D4C0D3C0D2C061
:10001000D1C0D0C0CFC0CEC0CDC0CCC0CBC0CAC074
:1000200074C2C8C0C7C00403090416036200690093
:1000300072006B006C00650072002E00730065009A
:1000400024034200690072006B006C0065007200BE
:10005000200054006F007500630068002B004B0007
:10006000650079001201100100000008424254E4CA
:10007000080001020001090222000101008032098A
:10008000040000010300000009210101000122A376
:10009000000705810308006405010902A1010901A7
:1000A000A100050919012903150025019503750112
:1000B000850181029501750581030501093009312A
:1000C0001581257F750895028106C0C00906A1012A
:1000D00085020507096609290928094A0976097E62
:1000E000094F0950095109520980098109570956D8
:1000F000093A093B093C093D093E093F09400941CC
:100100000942094395017508150125188140C00B66
:1001100000000100A1000501751095010900857C12
:10012000B1020900857DB102750895440900857EFC
:10013000B10009009509857FB100C0737461742016
:10014000646966663D2575282575757329206D617E
:10015000783D257528257575732920233D25752142
:100160000A0042210A0045464765666700202B2D9C
:100170002E303132333435363738396800001124A7
:100180001FBECFE5D2E0DEBFCDBF10E0A0E6B0E0FD
:10019000E2E2F4E102C005900D92AE37B107D9F763
:1001A00011E0AEE7B0E001C01D92A837B107E1F75A
:1001B00028D235C925CF85B7826085BF8BB78064CB
:1001C0008BBF8BE4809348018AE5809347010895B3
:1001D0001F93DC01162F809147018E31E1F0809151
:1001E000470184FF07C08091480198E889278093E0
:1001F000480103C08AE580934701912FE9E4F1E0CB
:100200008D9181939150E1F789E491E0612F11D5AF
:100210001C5F109347011F9108951F93CF93DF93A5
:1002200060915801635067FDE9C080915501CCE0B1
:10023000D0E0C81BD109C45ADE4FC39A8091540143
:100240008D3209F0C9C0683009F0D6C083EC8093C4
:100250003C018AE58093600010927F009881892F8D
:10026000807639F0CE0199D4282F8F3F09F4A3C0AE
:10027000A9C02A813C81109245018981882381F49B
:100280009F71923049F4313839F4809147018E31B1
:1002900019F481E0809345011092460122E084C068
:1002A000813011F0833089F4222309F07CC0313889
:1002B00009F079C0813011F08EE101C08AE58093A8
:1002C00047018BE4809348016EC0853019F4209378
:1002D000590169C0863009F04FC08B81813041F4EB
:1002E00084E690E0909357018093560122E140C04C
:1002F000823041F486E790E0909357018093560155
:1003000022E236C08330F9F48A81882341F486E200
:1003100090E0909357018093560124E029C08130EA
:1003200041F48AE290E0909357018093560126E1D0
:100330001FC08230E1F480E490E0909357018093F5
:10034000560124E215C0813241F488E890E0909390
:1003500057018093560129E00BC0823241F488E9AD
:1003600090E0909357018093560123EA01C020E06A
:1003700080E480937F0026C0883021F421E08BE563
:1003800091E014C0893019F420935B0109C08A30D0
:1003900011F421E009C08B3031F48BE480934801E3
:1003A0008AE58093470120E085E491E0909357012E
:1003B0008093560107C0888187FD2E8180E8809355
:1003C0007F0006C08F81882319F48E81821708F080
:1003D000822F8093610010C080917F0087FF0CC046
:1003E000CE0194D38F3F21F48EE18093600004C04E
:1003F000882311F0109261001092580180916000E2
:1004000084FF58C0809161008F3F09F453C0182FBA
:10041000893008F018E0811B8093610080913C01D5
:1004200098E8892780933C01112391F180917F0006
:1004300087FF08C08DE391E0612F1BD3182F89300F
:1004400098F526C0209156013091570186FF0DC0C6
:10045000ADE3B1E080E090E0F901E80FF91FE4912D
:10046000ED9301961817C1F708C0912FD901EDE35C
:10047000F1E08D9181939150E1F71150812F90E03F
:100480001F5F0196820F931F90935701809356012F
:100490008DE391E0612FCDD3612F6C5F6C3041F023
:1004A0008FEF8093610004C08FEF809361006EE155
:1004B0006093600094E186B3847449F49150D9F755
:1004C00010925901109253018AE58093470110E080
:1004D000992309F411E080917E00811739F01123EE
:1004E00019F4F8949DD1789410937E00DF91CF9108
:1004F0001F91089578941F920F920FB60F921124B6
:100500000F900FBE0F901F90189578941F920F9226
:100510000FB60F9211242F933F934F935F936F93D6
:100520007F938F939F9382B790E064B343B350E07F
:1005300072B3362F20E0282B392B972F80E0842BA5
:10054000952B281B390B309381002093800020913C
:100550008000309181008091820090918300821709
:10056000930740F4809180009091810090938300E4
:1005700080938200809184009091850001969093F1
:100580008500809384009F918F917F916F915F91FF
:100590004F913F912F910F900FBE0F901F90189584
:1005A000FC0180818076803251F581818130B1F407
:1005B0008281813019F0823011F508C086E890E020
:1005C000909357018093560184E008958AE890E063
:1005D000909357018093560182E00895823041F450
:1005E0008CE890E0909357018093560181E0089544
:1005F0008A3029F4838180938C0080E0089580E024
:100600000895A0E0B0E0E6E0F3E0DDC5D398DB9A22
:10061000BB9AC398C398B99AC198C19880EE85BB1C
:1006200081E083BF10BE88E08FBD17BC16BC10B838
:1006300019BCD498DC9AD09AD198D99882E690E0E7
:10064000909375018093740180E790E0909373011B
:100650008093720100D082E691E0EDB7FEB79283FD
:1006600081835AD6BC98C4982FE088E190E00FB6F9
:10067000F894A89581BD0FBE21BD0F900F909BDD12
:1006800089B7816089BF7894BC9AC49AD89A83E963
:1006900086B913B8C39AC19880E060ED77E068D15D
:1006A00081E060ED77E064D186E06CE271E060D1DA
:1006B00084E064EF71E05CD183E068E873E158D1D5
:1006C00000E02BE3C22E21E0D22EBB24B39498E0AD
:1006D000992E82E0A82EC0E0D0E0A89508B602FED0
:1006E00006C088B7846088BF88EF93E0E7D095DDC7
:1006F000CC9B02C000E04BC0C19A002311F001E086
:1007000046C080918000909181006091820070913C
:1007100083002091800030918100409182005091AF
:100720008300E0908400F09085008DB79EB70C9711
:100730000FB6F8949EBF0FBE8DBF0DB71EB70F5FEB
:100740001F4FEDB7FEB7D282C182F80133832283F7
:10075000158214825783468380E090E020E432E4DF
:100760004FE050E0EED420E235EC4BEF50E002D504
:10077000F80131872087F386E286CED501E08DB778
:100780009EB70C960FB6F8949EBF0FBE8DBF80919A
:10079000470184FF0CC080918700882341F0B0920C
:1007A00086001092870086E890E064E011DD809179
:1007B00072019091730142D584E0B1D0892B31F060
:1007C00084E064EF71E0D4D0B7B8369A86B1349A39
:1007D00087B18F73813021F41092880010928900C4
:1007E00080E09DD0892B39F080E064EF71E0C0D0CB
:1007F00088B3892588BB81E092D0892B39F081E0CC
:100800006AEF70E0B5D088B38A2588BBCB9965CFF5
:10081000F8941ABA17BA18BA1BBAFE0109955DCF37
:10082000EF92FF920F931F93CF93DF9380E8F82E00
:1008300000E0C0E0D0E0102F1F0D11BFFED19C01E1
:1008400089E0243338070CF0102FF6942196C83035
:10085000D10511F0012FEFCF115011BF1F5F7901AA
:10086000C12FD0E0219610C0E8D18453994097FF62
:1008700003C0909581959F4F8E159F0514F411B775
:100880007C0181B78F5F81BF81B790E0C817D9071E
:100890005CF711BFCDB7DEB7E6E0B6C480E090E00C
:1008A0002FEF3FEFFC01EE0FFF1FE257FF4F3183A9
:1008B0002083019687309105A9F7089520918D0036
:1008C000820F911D80938D00892F99276FEF7FEF05
:1008D00040E050E0FA01EE0FFF1FE257FF4F20818A
:1008E0003181AFEF2F3F3A0799F08217930770F4E9
:1008F000281B390B2617370708F4B901FA01EE0F48
:10090000FF1FE257FF4F3183208302C01182108204
:100910004F5F5F4F47305105E9F6CB010895E82F4F
:10092000F0E0EE0FFF1FE257FF4F80819181892B8E
:1009300019F020E030E006C08FEF9FEF91838083B5
:1009400021E030E0C9010895E82FF0E0EE0FFF1F2D
:10095000E257FF4F8FEF9FEF918380830895E82F39
:10096000F0E0EE0FFF1FE257FF4F11821082089553
:10097000E82FF0E0EE0FFF1FE257FF4F7183608317
:100980000895DC0113962C9113972F5F11963C91DB
:100990001197232312968C911297281761F48C914A
:1009A00080FD03C06FEF7FEF10C0822F8F5F832326
:1009B00012968C93129713968C911397FD01E80F62
:1009C000F11D648313962C9370E0CB010895DC0134
:1009D00012962C91129713968C911397281719F44D
:1009E0004FEF5FEF0DC0FD01E20FF11D8481482F35
:1009F00050E02F5F11968C911197282312962C931B
:100A0000CA010895DC0112962C91129713968C91CD
:100A10001397281769F0FD01E20FF11D84812F5F04
:100A200011969C911197292312962C9390E008958A
:100A3000FFCFFC0180919C00882369F48FE78093AD
:100A4000A00091E090939F008FE080932601109288
:100A5000250190939C00808191818E5B9A4B31F0AF
:100A60008EEB9AEB9183808314821582089580E047
:100A700008959C0180913A018E3719F54091390112
:100A8000D901942F20E017C0943030F4E92FF0E022
:100A9000E156FF4F80810BC0E091A100E450E90FC7
:100AA0008091A000E823F0E0E356FF4F86818C930D
:100AB0002F5F9F5F1196261738F3460F4093390139
:100AC00003C0C901D4DF682F862F089580E0089500
:100AD0000F931F93FC0104851585C801AADFC80187
:100AE000029675DF1F910F910895EF92FF921F9369
:100AF000182FFB01E484F584C7019BDFC701029630
:100B0000612F3FDF1F91FF90EF900895A0E0B0E0CC
:100B1000EBE8F5E05AC3FC01F62E80913A018C37E0
:100B200021F481818093A10033C08F3771F5EF01EB
:100B300000E010E0C62EDD2482E0B82EEE24E3941F
:100B400020C080913901882319F4E092390116C040
:100B5000813031F4888180933B01B09239010EC01D
:100B600080913B01882351F0888190E060E770E03C
:100B7000A7D380913B01815080933B010F5F1F4FB2
:100B800021960C151D05ECF203C0CF019FDFF82E56
:100B90008F2DCDB7DEB7E9E034C3382FE82FF92F1A
:100BA000228120933A01808180768032D1F4818144
:100BB000813069F42D3719F02E3799F40EC088E290
:100BC00091E0909357018093560181E00895893018
:100BD00041F42C3721F02F3721F4109239018FEF97
:100BE0000895832FDDDC0895A82FB92F8FEF9FEF95
:100BF0001BC02D918227282F22952827722F2695FA
:100C000026952727239526952170782F892F8227CF
:100C10002195207C922F222776952795972782274A
:100C20007695279597278227615018F7809590959C
:100C30000895DADF8D939D930895A6E0882799277C
:100C4000AA9569F00197E1F3B299FCCFB29BFECF70
:100C500081E09927A6B3019611F0A474D9F70895FD
:100C6000CF93CFB7CF93C395B29BE9F7B29B0BC09D
:100C7000B29B09C0B29B07C0B29B05C0B29B03C028
:100C8000B29B01C0D5C00F92DF93C0915501DD2703
:100C9000C45ADE4F012EB29B03C0DF910F90E6CF06
:100CA0002F930F931F934F932FEF4F6F06B302FBBA
:100CB00020F95F933F9350E03BE065C016B30126F7
:100CC000502952FDC89556B3012702FB25F92F7311
:100CD00006B3B1F05027102712FB26F906B22230D6
:100CE000F0F000C016B3012702FB27F901265029B6
:100CF00006B22430E8F54F77206816B30000F6CF2F
:100D000050274F7D206206B2102F000000C006B3AE
:100D100000265029102712FB26F906B2E2CF4F7B9E
:100D200006B3206400C0DACF01265029147406B23D
:100D300069F14E7F2160012F16B328C0002650298B
:100D40004D7F06B22260102F29C0012650294B7F0B
:100D500006B22460012F2DC016B301265029477F0B
:100D60002860000006B22EC04F7E06B3206130C05E
:100D7000422706B3499300265029102706B24FEFA9
:100D800012FB20F9297F16B379F2147459F1012668
:100D9000502906B2012702FB21F9237F06B371F225
:100DA000002650293150D0F006B2102712FB22F94C
:100DB000277E16B351F201265029012702FB06B205
:100DC00023F92F7C49F2000006B3102712FB24F907
:100DD0000026502906B22F7939F270CF10E41ABFDD
:100DE000002719C03B503195C31BD04010E41ABFF7
:100DF0000881033C09F10B34F9F02091530119816A
:100E0000110F1213EDCF4A81441F093651F10D32F3
:100E100011F0013E29F700935A013F915F914F91E4
:100E20001F910F912F91DF910F90CAB7C6FD1BCF75
:100E3000CF91CFBFCF91189520915A01222369F30A
:100E400010915801112379F534307AF1309358011B
:100E500020935401109155013BE0311B3093550113
:100E600024C0009158010130F4F40AE54F7049F4B0
:100E70003091600034FD1AC000936000CCE3D1E0F3
:100E800019C03091470134FD11C000934701C8E4F7
:100E9000D1E010C0052710E000C021C0052710E0F8
:100EA000C89508BB14C03AE501C032ED032EC0E07E
:100EB000D0E032E017B31464C29A08B317BB54E40D
:100EC00020E84FEF20FF052708BB279517951C3F0B
:100ED00028F700004552B0F720FF0527279508BBEB
:100EE00017951C3FB8F629913A9561F70B7B109145
:100EF0005901110F08BBC250D04011F0109353019B
:100F000010E41ABF046017B31B7B402F4B7B54E0E7
:100F10005A95F1F708BB17BB48BB7FCFABE0B0E0F9
:100F2000E3E9F7E04DC15C014B017A01FC01178256
:100F30001682838181FD08C06FEF7FEFFEC042E023
:100F400050E0E40EF51E04C03E010894611C711CC3
:100F5000F501D380F401D3FC8591D3FE81914F013B
:100F6000882309F4E7C0853259F4D3FC6591D3FE98
:100F700061914F01653219F0062F10E01AC085E229
:100F800090E029C0002309F4D5C08DE691E0602FE0
:100F900070E049D1892B39F4033211F4106103C098
:100FA0000C3661F41068F401D3FC0591D3FE019175
:100FB0004F0117FFE7CF002309F4BCC086E691E09C
:100FC000602F70E030D1892B49F044E050E0E40E0E
:100FD000F51E8FE390E0B50173D1BACF033629F047
:100FE000033771F00335E1F40AC087010E5F1F4F2C
:100FF000F70180819181B50163D17801A9CF11609A
:10100000F701C080D18003C090E0B50159D1F6014D
:1010100010FD859110FF81916F018823A9F78FCF73
:10102000043611F0093639F517FF08C0F7012081A1
:1010300031814281538184E090E00AC0F7018081D0
:1010400091819C01442737FD4095542F82E090E028
:10105000E80EF91E1F7E57FF08C050954095309549
:1010600021953F4F4F4F5F4F1064CA01B901A30153
:101070002AE030E034C00037A9F0013730F40835F9
:10108000B1F00F3609F056C006C0053739F0083701
:1010900009F050C008C028E030E00CC01F7E2AE0F4
:1010A00030E008C01061146220E130E003C0146039
:1010B00020E132E017FF08C0F70160817181828171
:1010C000938144E050E008C0F70180819181BC0128
:1010D00080E090E042E050E0E40EF51EA3013FD135
:1010E000D82ED618012F10E006FF04C08DE290E044
:1010F000B501E6D004FF13C0FE01ED0DF11D8081A6
:10110000803369F080E390E0B501DAD002FF07C0D8
:1011100000721070C801885A9F4FB501D1D0DA947F
:10112000F301ED0DF11D808190E0B501C9D0DD2006
:10113000B1F70ECFF50166817781CB012B96EEE0FA
:101140005BC0FF27EE27BB27AA2760FF04C0A20FC2
:10115000B31FE41FF51F220F331F441F551F969521
:1011600087957795679589F70097760771F7CF018F
:10117000BD010895A1E21A2EAA1BBB1BFD010DC0E3
:10118000AA1FBB1FEE1FFF1FA217B307E407F50737
:1011900020F0A21BB30BE40BF50B661F771F881F13
:1011A000991F1A9469F760957095809590959B01A9
:1011B000AC01BD01CF0108952F923F924F925F92F3
:1011C0006F927F928F929F92AF92BF92CF92DF9257
:1011D000EF92FF920F931F93CF93DF93CDB7DEB7BC
:1011E000CA1BDB0B0FB6F894DEBF0FBECDBF099450
:1011F0002A88398848885F846E847D848C849B84A7
:10120000AA84B984C884DF80EE80FD800C811B81B4
:10121000AA81B981CE0FD11D0FB6F894DEBF0FBEE3
:10122000CDBFED010895FC010590061621F00020C8
:10123000D9F7C00108953197CF010895CF93DF9377
:10124000EC014B8140FF1AC046FF0AC04F7B4B8325
:101250008E819F8101969F838E838A81282F2BC048
:1012600042FF13C0E881F9818081282F332727FDB1
:1012700030952115310529F440624B832FEF3FEF64
:101280001BC03196F983E88311C0EA85FB85CE0146
:1012900009959C0197FF0AC09B812F5F3F4F11F07A
:1012A00080E201C080E1892B8B83E8CF8E819F8112
:1012B00001969F838E8330E0C901DF91CF9108951D
:1012C0000F931F93CF93DF938C01EB018B8181FFF1
:1012D0001BC082FF0DC02E813F818C819D8128170C
:1012E000390764F4E881F9810193F983E88306C042
:1012F000E885F985802F0995892B31F48E819F81AE
:1013000001969F838E8302C00FEF1FEFC801DF910C
:10131000CF911F910F910895A0E0B0E0E1E9F9E0CD
:101320005BCFFE01359661917191A0917401B091EE
:10133000750113968C911397886013968C93809106
:10134000740190917501AF01E9DDE0917401F091B4
:1013500075012381277F23832096E2E059CFFA018C
:10136000AA27283061F1203191F1E8946F936E7FC4
:101370006E5F7F4F8F4F9F4FAF4FB1E040D0B4E0D3
:101380003ED0670F781F891F9A1FA11D680F791F14
:101390008A1F911DA11D6A0F711D811D911DA11D27
:1013A00022D009F468943F91062E000C3019000CED
:1013B000000C3019305D3193CEF6CF010895462FE1
:1013C0004770405D4193B3E00FD0C9F7F6CF462F89
:1013D0004F70405D4A3318F0495D31FD40524193F2
:1013E00002D0A9F7EACFB4E0A695979587957795AF
:1013F0006795BA95C9F700976105710508959B0136
:10140000AC010A2E06945795479537952795BA95BE
:10141000C9F7620F731F841F951FA01D0895F894CC
:02142000FFCFFC
:101422005AFF0000000200000000750500009D0048
:0E14320000000003000000007505680523019E
:00000001FF
